{
  "_format": "hh-sol-artifact-1",
  "contractName": "OnboardAgent",
  "sourceName": "contracts/OnboardAgent.sol",
  "abi": [
    {
      "inputs": [
        {
          "internalType": "address",
          "name": "initialOracleAddress",
          "type": "address"
        },
        {
          "internalType": "string",
          "name": "systemPrompt",
          "type": "string"
        }
      ],
      "stateMutability": "nonpayable",
      "type": "constructor"
    },
    {
      "anonymous": false,
      "inputs": [
        {
          "indexed": true,
          "internalType": "address",
          "name": "owner",
          "type": "address"
        },
        {
          "indexed": true,
          "internalType": "uint256",
          "name": "runId",
          "type": "uint256"
        }
      ],
      "name": "AgentRunCreated",
      "type": "event"
    },
    {
      "anonymous": false,
      "inputs": [
        {
          "indexed": true,
          "internalType": "address",
          "name": "newOracleAddress",
          "type": "address"
        }
      ],
      "name": "OracleAddressUpdated",
      "type": "event"
    },
    {
      "inputs": [
        {
          "internalType": "uint256",
          "name": "",
          "type": "uint256"
        }
      ],
      "name": "agentRuns",
      "outputs": [
        {
          "internalType": "address",
          "name": "owner",
          "type": "address"
        },
        {
          "internalType": "uint256",
          "name": "responsesCount",
          "type": "uint256"
        },
        {
          "internalType": "uint8",
          "name": "max_iterations",
          "type": "uint8"
        },
        {
          "internalType": "bool",
          "name": "is_finished",
          "type": "bool"
        }
      ],
      "stateMutability": "view",
      "type": "function"
    },
    {
      "inputs": [
        {
          "internalType": "uint256",
          "name": "agentId",
          "type": "uint256"
        }
      ],
      "name": "getMessageHistory",
      "outputs": [
        {
          "components": [
            {
              "internalType": "string",
              "name": "role",
              "type": "string"
            },
            {
              "components": [
                {
                  "internalType": "string",
                  "name": "contentType",
                  "type": "string"
                },
                {
                  "internalType": "string",
                  "name": "value",
                  "type": "string"
                }
              ],
              "internalType": "struct IOracle.Content[]",
              "name": "content",
              "type": "tuple[]"
            }
          ],
          "internalType": "struct IOracle.Message[]",
          "name": "",
          "type": "tuple[]"
        }
      ],
      "stateMutability": "view",
      "type": "function"
    },
    {
      "inputs": [
        {
          "internalType": "string",
          "name": "intent",
          "type": "string"
        },
        {
          "internalType": "string",
          "name": "data",
          "type": "string"
        }
      ],
      "name": "handleIntent",
      "outputs": [],
      "stateMutability": "nonpayable",
      "type": "function"
    },
    {
      "inputs": [
        {
          "internalType": "uint256",
          "name": "runId",
          "type": "uint256"
        }
      ],
      "name": "isRunFinished",
      "outputs": [
        {
          "internalType": "bool",
          "name": "",
          "type": "bool"
        }
      ],
      "stateMutability": "view",
      "type": "function"
    },
    {
      "inputs": [
        {
          "internalType": "uint256",
          "name": "runId",
          "type": "uint256"
        },
        {
          "internalType": "string",
          "name": "response",
          "type": "string"
        },
        {
          "internalType": "string",
          "name": "errorMessage",
          "type": "string"
        }
      ],
      "name": "onOracleFunctionResponse",
      "outputs": [],
      "stateMutability": "nonpayable",
      "type": "function"
    },
    {
      "inputs": [
        {
          "internalType": "uint256",
          "name": "runId",
          "type": "uint256"
        },
        {
          "components": [
            {
              "internalType": "string",
              "name": "id",
              "type": "string"
            },
            {
              "internalType": "string",
              "name": "content",
              "type": "string"
            },
            {
              "internalType": "string",
              "name": "functionName",
              "type": "string"
            },
            {
              "internalType": "string",
              "name": "functionArguments",
              "type": "string"
            },
            {
              "internalType": "uint64",
              "name": "created",
              "type": "uint64"
            },
            {
              "internalType": "string",
              "name": "model",
              "type": "string"
            },
            {
              "internalType": "string",
              "name": "systemFingerprint",
              "type": "string"
            },
            {
              "internalType": "string",
              "name": "object",
              "type": "string"
            },
            {
              "internalType": "uint32",
              "name": "completionTokens",
              "type": "uint32"
            },
            {
              "internalType": "uint32",
              "name": "promptTokens",
              "type": "uint32"
            },
            {
              "internalType": "uint32",
              "name": "totalTokens",
              "type": "uint32"
            }
          ],
          "internalType": "struct IOracle.OpenAiResponse",
          "name": "response",
          "type": "tuple"
        },
        {
          "internalType": "string",
          "name": "errorMessage",
          "type": "string"
        }
      ],
      "name": "onOracleOpenAiLlmResponse",
      "outputs": [],
      "stateMutability": "nonpayable",
      "type": "function"
    },
    {
      "inputs": [],
      "name": "oracleAddress",
      "outputs": [
        {
          "internalType": "address",
          "name": "",
          "type": "address"
        }
      ],
      "stateMutability": "view",
      "type": "function"
    },
    {
      "inputs": [],
      "name": "prompt",
      "outputs": [
        {
          "internalType": "string",
          "name": "",
          "type": "string"
        }
      ],
      "stateMutability": "view",
      "type": "function"
    },
    {
      "inputs": [
        {
          "internalType": "string",
          "name": "intent",
          "type": "string"
        },
        {
          "internalType": "string",
          "name": "query",
          "type": "string"
        },
        {
          "internalType": "uint8",
          "name": "max_iterations",
          "type": "uint8"
        }
      ],
      "name": "runAgent",
      "outputs": [
        {
          "internalType": "uint256",
          "name": "",
          "type": "uint256"
        }
      ],
      "stateMutability": "nonpayable",
      "type": "function"
    },
    {
      "inputs": [
        {
          "internalType": "address",
          "name": "newOracleAddress",
          "type": "address"
        }
      ],
      "name": "setOracleAddress",
      "outputs": [],
      "stateMutability": "nonpayable",
      "type": "function"
    }
  ],
  "bytecode": "0x608060405234620014145762006dc5803803806200001d8162001459565b928339810190604081830312620014145780516001600160a01b038116919082900362001414576020810151906001600160401b03821162001414570182601f8201121562001414578051906001600160401b03821162000d2a576200008d601f8301601f191660200162001459565b9382855260208383010111620014145760005b828110620013fe57505060206000918401015260018060a01b0319338160035416176003556004541617600455805160018060401b03811162000d2a57600054600181811c91168015620013f3575b602082101462000d0957601f81116200139b575b50602091601f821160011462001326579181926000926200131a575b50508160011b916000199060031b1c1916176000555b6040516101a081016001600160401b0381118282101762000d2a576040526200015d62001419565b601381527f6770742d342d747572626f2d707265766965770000000000000000000000000060208201528152601560208201526200019a62001439565b6000815260408201526103e8606082015260156080820152620001bc62001419565b600f81526e7b2274797065223a2274657874227d60881b602082015260a0820152600060c0820152620001ee62001439565b6000815260e0820152600a61010082015260656101208201526040516001600160401b0361056082019081119082111762000d2a57610560810160405261052981527f5b7b2274797065223a2266756e6374696f6e222c2266756e6374696f6e223a7b60208201527f226e616d65223a227765625f736561726368222c226465736372697074696f6e60408201527f223a225365617263682074686520696e7465726e6574222c22706172616d657460608201527f657273223a7b2274797065223a226f626a656374222c2270726f70657274696560808201527f73223a7b227175657279223a7b2274797065223a22737472696e67222c22646560a08201527f736372697074696f6e223a22536561726368207175657279227d7d2c2272657160c08201527f7569726564223a5b227175657279225d7d7d7d2c7b2274797065223a2266756e60e08201527f6374696f6e222c2266756e6374696f6e223a7b226e616d65223a22696d6167656101008201527f5f67656e65726174696f6e222c226465736372697074696f6e223a2247656e656101208201527f726174657320616e20696d616765207573696e672044616c6c652d32222c22706101408201527f6172616d6574657273223a7b2274797065223a226f626a656374222c2270726f6101608201527f70657274696573223a7b2270726f6d7074223a7b2274797065223a22737472696101808201527f6e67222c226465736372697074696f6e223a2244616c6c652d322070726f6d706101a08201527f7420746f2067656e657261746520616e20696d616765227d7d2c2272657175696101c08201527f726564223a5b2270726f6d7074225d7d7d7d2c7b2274797065223a2266756e636101e08201527f74696f6e222c2266756e6374696f6e223a7b226e616d65223a22636f64655f696102008201527f6e746572707265746572222c226465736372697074696f6e223a224576616c756102208201527f6174657320707974686f6e20636f646520696e20612073616e64626f7820656e6102408201527f7669726f6e6d656e742e2054686520656e7669726f6e6d656e742072657365746102608201527f73206f6e20657665727920657865637574696f6e2e20596f75206d75737420736102808201527f656e64207468652077686f6c65207363726970742065766572792074696d65206102a08201527f616e64207072696e7420796f7572206f7574707574732e2053637269707420736102c08201527f686f756c64206265207075726520707974686f6e20636f6465207468617420636102e08201527f616e206265206576616c75617465642e2049742073686f756c6420626520696e6103008201527f20707974686f6e20666f726d6174204e4f54206d61726b646f776e2e205468656103208201527f20636f64652073686f756c64204e4f54206265207772617070656420696e20626103408201527f61636b7469636b732e20416c6c20707974686f6e207061636b6167657320696e6103608201527f636c7564696e672072657175657374732c206d6174706c6f746c69622c2073636103808201527f6970792c206e756d70792c2070616e6461732c206574632061726520617661696103a08201527f6c61626c652e204f75747075742063616e206f6e6c79206265207265616420666103c08201527f726f6d207374646f75742c20616e6420737464696e2e20446f206e6f742075736103e08201527f65207468696e6773206c696b6520706c6f742e73686f772829206173206974206104008201527f77696c6c206e6f7420776f726b2e207072696e74282920616e79206f757470756104208201527f7420616e6420726573756c747320736f20796f752063616e20636170747572656104408201527f20746865206f75747075742e222c22706172616d6574657273223a7b227479706104608201527f65223a226f626a656374222c2270726f70657274696573223a7b22636f6465226104808201527f3a7b2274797065223a22737472696e67222c226465736372697074696f6e223a6104a08201527f22546865207075726520707974686f6e2073637269707420746f2062652065766104c08201527f616c75617465642e2054686520636f6e74656e74732077696c6c20626520696e6104e08201527f206d61696e2e70792e2049742073686f756c64206e6f7420626520696e206d616105008201527f726b646f776e20666f726d61742e227d7d2c227265717569726564223a5b2263610520820152686f6465225d7d7d7d5d60b81b6105408201526101408201526200088b62001419565b60048152636175746f60e01b6020820152610160820152620008ac62001439565b6000815261018082015280518051906001600160401b03821162000d2a5760055490600182811c921680156200130f575b602083101462000d095781601f849311620012b9575b50602090601f83116001146200122a576000926200121e575b50508160011b916000199060031b1c1916176005555b602081015160ff19600654169060ff1617600655604081015180519060018060401b03821162000d2a5760075490600182811c9216801562001213575b602083101462000d095781601f849311620011b2575b50602090601f8311600114620011345760009262001128575b50508160011b916000199060031b1c1916176007555b63ffffffff60608201511660085490608083015160201b64ff00000000169164ffffffffff1916171760085560a081015180519060018060401b03821162000d2a5760095490600182811c921680156200111d575b602083101462000d095781601f849311620010bc575b50602090601f83116001146200103e5760009262001032575b50508160011b916000199060031b1c1916176009555b60c0810151600a5560e08101518051906001600160401b03821162000d2a57600b5490600182811c9216801562001027575b602083101462000d095781601f84931162000fb5575b50602090601f831160011462000f265760009262000f1a575b50508160011b916000199060031b1c191617600b555b610100810151600c55610120810151600d5561014081015180519091906001600160401b03811162000d2a57600e54600181811c9116801562000f0f575b602082101462000d0957601f811162000ea5575b50602092601f821160011462000e3a579281929360009262000e2e575b50508160011b916000199060031b1c191617600e555b610160810151805191906001600160401b03831162000d2a57600f54600181811c9116801562000e23575b602082101462000d0957601f811162000dca575b50602090601f841160011462000d4c5761018093916000918362000d40575b50508160011b916000199060031b1c191617600f555b015180516001600160401b03811162000d2a57601054600181811c9116801562000d1f575b602082101462000d0957601f811162000c9f575b50602091601f821160011462000c355791819260009262000c29575b50508160011b916000199060031b1c1916176010555b6040516158c59081620014808239f35b01519050388062000c03565b601f19821692601060005260206000209160005b85811062000c865750836001951062000c6c575b505050811b0160105562000c19565b015160001960f88460031b161c1916905538808062000c5d565b9192602060018192868501518155019401920162000c49565b60106000527f1b6847dc741a1b0cd08d278845f9d819d87b734759afb55fe2de5cb82a9ae672601f830160051c8101916020841062000cfe575b601f0160051c01905b81811062000cf1575062000be7565b6000815560010162000ce2565b909150819062000cd9565b634e487b7160e01b600052602260045260246000fd5b90607f169062000bd3565b634e487b7160e01b600052604160045260246000fd5b01519050388062000b98565b600f600090815260008051602062006da5833981519152929190601f198616905b81811062000db1575091600193918661018097941062000d97575b505050811b01600f5562000bae565b015160001960f88460031b161c1916905538808062000d88565b9293602060018192878601518155019501930162000d6d565b600f60005260008051602062006da5833981519152601f850160051c8101916020861062000e18575b601f0160051c01905b81811062000e0b575062000b79565b6000815560010162000dfc565b909150819062000df3565b90607f169062000b65565b01519050388062000b24565b601f19821693600e60005260206000209160005b86811062000e8c575083600195961062000e72575b505050811b01600e5562000b3a565b015160001960f88460031b161c1916905538808062000e63565b9192602060018192868501518155019401920162000e4e565b600e6000527fbb7b4a454dc3493923482f07822329ed19e8244eff582cc204f8554c3620c3fd601f830160051c8101916020841062000f04575b601f0160051c01905b81811062000ef7575062000b07565b6000815560010162000ee8565b909150819062000edf565b90607f169062000af3565b01519050388062000a9f565b600b600090815293507f0175b7a638427703f0dbe7bb9bbf987a2551717b34e79f33b5b1008d1fa01db991905b601f198416851062000f99576001945083601f1981161062000f7f575b505050811b01600b5562000ab5565b015160001960f88460031b161c1916905538808062000f70565b8181015183556020948501946001909301929091019062000f53565b600b6000529091507f0175b7a638427703f0dbe7bb9bbf987a2551717b34e79f33b5b1008d1fa01db9601f840160051c8101602085106200101f575b90849392915b601f830160051c820181106200100f57505062000a86565b6000815585945060010162000ff7565b508062000ff1565b91607f169162000a70565b01519050388062000a28565b60096000908152935060008051602062006d8583398151915291905b601f1984168510620010a0576001945083601f1981161062001086575b505050811b0160095562000a3e565b015160001960f88460031b161c1916905538808062001077565b818101518355602094850194600190930192909101906200105a565b600960005290915060008051602062006d85833981519152601f840160051c81016020851062001115575b90849392915b601f830160051c820181106200110557505062000a0f565b60008155859450600101620010ed565b5080620010e7565b91607f1691620009f9565b0151905038806200098e565b60076000908152935060008051602062006d6583398151915291905b601f198416851062001196576001945083601f198116106200117c575b505050811b01600755620009a4565b015160001960f88460031b161c191690553880806200116d565b8181015183556020948501946001909301929091019062001150565b600760005290915060008051602062006d65833981519152601f840160051c8101602085106200120b575b90849392915b601f830160051c82018110620011fb57505062000975565b60008155859450600101620011e3565b5080620011dd565b91607f16916200095f565b0151905038806200090c565b6005600090815293507f036b6384b5eca791c62761152d0c79bb0604c104a5fb6f4eb0703f3154bb3db091905b601f19841685106200129d576001945083601f1981161062001283575b505050811b0160055562000922565b015160001960f88460031b161c1916905538808062001274565b8181015183556020948501946001909301929091019062001257565b90915060056000526020600020601f840160051c81016020851062001307575b90849392915b601f830160051c82018110620012f7575050620008f3565b60008155859450600101620012df565b5080620012d9565b91607f1691620008dd565b0151905038806200011f565b6000808052601f1983169360008051602062006d458339815191529290915b858110620013825750836001951062001368575b505050811b0160005562000135565b015160001960f88460031b161c1916905538808062001359565b9192602060018192868501518155019401920162001345565b6000805260008051602062006d45833981519152601f830160051c81019160208410620013e8575b601f0160051c01905b818110620013db575062000103565b60008155600101620013cc565b9091508190620013c3565b90607f1690620000ef565b80602080928401015182828801015201620000a0565b600080fd5b60408051919082016001600160401b0381118382101762000d2a57604052565b60405190602082016001600160401b0381118382101762000d2a57604052565b6040519190601f01601f191682016001600160401b0381118382101762000d2a5760405256fe6080604081815260048036101561001557600080fd5b600092833560e01c9081632eab9c81146124fb575080634c69c00f146124585780634cecd88e1461229a57806354a470fc146120835780635549daf5146103b65780637397454d146102335780637c65d711146101f15780638736f05414610111578063a89ae4ba146100ea5763c63b02951461009157600080fd5b346100e65760203660031901126100e6578160809360ff9235815260016020522060018060a01b03815416926003600283015492015491815194855260208501528282169084015260081c1615156060820152f35b8280fd5b50346100e657826003193601126100e6575490516001600160a01b03909116815260209150f35b5090346100e6573660031901126101ed5767ffffffffffffffff81358181116101e957610141903690840161259c565b916024359182116101e9576101589136910161259c565b6101696101636127b3565b836152fa565b1561017c5761017791613388565b505b80f35b6101876101636127e0565b156101955761017791613388565b6101a0610163612808565b156101ae5761017791613388565b6101b9610163612830565b156101c75761017791613388565b6101d261016361285b565b156101e05761017791613388565b61017791613388565b8380fd5b5080fd5b5050346101ed57816003193601126101ed57805161022f9161021d826102168161268b565b038361257a565b5191829160208352602083019061262c565b0390f35b509190346101ed5760603660031901126101ed5767ffffffffffffffff9083356024358381116103b25761026a903690870161259c565b926044359081116103b257610282903690870161259c565b855490936001600160a01b039161029c9083163314614fe1565b828652602094600186528487209160ff600384015460081c1661037d5792600261032d9695936103026102f98b8d966102e58d9a928c51906102dd8261255e565b8152826152fa565b15610375575b506102f4615024565b615268565b60018301612ac5565b0161030d8154615049565b905581541690878551809781958294633c38a5f560e01b84528301612e63565b03925af190811561036c5750610341578280f35b813d8311610365575b610354818361257a565b810103126103625781808280f35b80fd5b503d61034a565b513d85823e3d90fd5b90508d6102eb565b855162461bcd60e51b8152808a01889052600f60248201526e149d5b881a5cc8199a5b9a5cda1959608a1b6044820152606490fd5b8480fd5b509190346101ed5760603660031901126101ed5767ffffffffffffffff9183358381116101ed576103ea903690860161259c565b926024359081116101ed57610402903690860161259c565b936044359360ff85168095036100e65761042361041d6127b3565b826152fa565b156108f4575061043b6104368354612651565b6129e6565b61045382556000805160206154d0833981519152600080516020615470833981519152556000805160206157d0833981519152600080516020615530833981519152557f20666f72204661726361737465722c206120646563656e7472616c697a6564206000805160206154f0833981519152557f736f6369616c206d6564696120706c6174666f726d2e2054686520636f6e7465600080516020615510833981519152557f6e742073686f756c6420626520696e666f726d61746976652c20656e74657274600080516020615670833981519152557f61696e696e672c206f722074686f756768742d70726f766f6b696e6720746f206000805160206154b0833981519152557f656e636f757261676520656e676167656d656e742e2041766f696420636f6e746000805160206156f0833981519152557f726f7665727369616c206f722073656e73697469766520746f706963732e2049600080516020615430833981519152557f6e636c7564652072656c6576616e742068617368746167732069662061707072600080516020615490833981519152557f6f7072696174652c2062757420757365207468656d2073706172696e676c792e600080516020615550833981519152557f204f6e6c792067656e6572617465206f6e6520696d6167652070657220726571600080516020615450833981519152557f756573742e20596f757220726573706f6e73652073686f756c6420626520696e6000805160206157b0833981519152557f207468697320666f726d61743a0a0a46617263617374657220636f6e74656e74600080516020615390833981519152557f3a205b596f75722067656e657261746564207465787420636f6e74656e7420666000805160206153f0833981519152557f6f72207468652046617263617374657220636173742c206d6178203332302063600080516020615690833981519152557f6861726163746572735d0a0a2e20446f206e6f7420696e636c75646520746865600080516020615410833981519152557f20696d61676520696e207468652046617263617374657220636f6e74656e742060008051602061587083398151915255683932b9b837b739b29760b91b600080516020615790833981519152555b60025482526108216020956001875284842095336bffffffffffffffffffffffff60a01b885416178755600387019081548660028a015561ffff191617905561081b6107ed86516107cb8161252c565b600681526573797374656d60d01b8a8201528751906102f4826102168161268b565b916107fc600189019384612ac5565b86516108078161252c565b858152633ab9b2b960e11b8a820152615268565b90612ac5565b60025493600185018086116108e15760025561085f868660018060a01b03948581541690878951809681958294633c38a5f560e01b84528301612e63565b03925af180156108d757869493929188916108a4575b50505416907f9697c88a6be3b3ed5062f2dcbd719a10914832320686f14e24f7756210a6685e9080a351908152f35b908092939495503d83116108d0575b6108bd818361257a565b810103126100e657908492918638610875565b503d6108b3565b85513d86823e3d90fd5b634e487b7160e01b845260118352602484fd5b6108ff61041d6127e0565b15610aba57506109176109128354612651565b612997565b61021f82556000805160206154d0833981519152600080516020615470833981519152557f7a656420696e2067656e65726174696e6720696d6167657320666f72204e4654600080516020615530833981519152557f732e205768656e2061207573657220726571756573747320746f2067656e65726000805160206154f0833981519152557f61746520616e204e46542c20637265617465206120756e6971756520616e6420600080516020615510833981519152557f76697375616c6c792061707065616c696e6720696d616765206261736564206f600080516020615670833981519152557f6e2074686520757365722773206465736372697074696f6e20616e64207265716000805160206154b0833981519152557f756972656d656e74732e20456e737572652074686520696d61676520697320686000805160206156f0833981519152557f696768207175616c69747920616e64207375697461626c6520666f72206d696e600080516020615430833981519152556e3a34b7339030b99030b71027232a1760891b6000805160206154908339815191525561077b565b610ac561041d612808565b15610d875750610add610ad88354612651565b612948565b61038582556000805160206154d0833981519152600080516020615470833981519152556000805160206157d0833981519152600080516020615530833981519152557f20666f72204c656e732050726f746f636f6c2c206120646563656e7472616c696000805160206154f0833981519152557f7a656420736f6369616c206d6564696120706c6174666f726d2e205468652063600080516020615510833981519152557f6f6e74656e742073686f756c6420626520696e666f726d61746976652c20656e600080516020615670833981519152557f7465727461696e696e672c206f722074686f756768742d70726f766f6b696e676000805160206154b0833981519152557f20746f20656e636f757261676520656e676167656d656e742e2041766f6964206000805160206156f0833981519152557f636f6e74726f7665727369616c206f722073656e73697469766520746f706963600080516020615430833981519152557f732e20496e636c7564652072656c6576616e7420686173687461677320696620600080516020615490833981519152557f617070726f7072696174652c2062757420757365207468656d2073706172696e600080516020615550833981519152557f676c792e20596f757220726573706f6e73652073686f756c6420626520696e20600080516020615450833981519152557f7468697320666f726d61743a0a0a4c656e7320636f6e74656e743a205b596f756000805160206157b0833981519152557f722067656e657261746564207465787420636f6e74656e7420666f7220746865600080516020615390833981519152557f204c656e7320706f73742c206d6178203530303020636861726163746572735d6000805160206153f08339815191525561050560f11b6000805160206156908339815191525561077b565b610d9261041d612830565b156115445750610daa610da58354612651565b612898565b6109ef82556000805160206154d0833981519152600080516020615470833981519152557f7a656420696e206372656174696e67204e465473206f6e20746865205a6f7261600080516020615530833981519152557f2070726f746f636f6c2e20596f7572207461736b20697320746f2067656e65726000805160206154f0833981519152557f61746520626f7468207465787420636f6e74656e7420616e6420696d61676573600080516020615510833981519152557f20666f72204e465473206261736564206f6e207468652075736572277320696e600080516020615670833981519152557f7075742e20466f6c6c6f772074686573652067756964656c696e65733a0a0a316000805160206154b0833981519152557f2e2047656e65726174652061206e616d6520666f7220746865204e465420286d6000805160206156f0833981519152557f61782035302063686172616374657273292e0a322e2043726561746520612064600080516020615430833981519152557f657461696c6564206465736372697074696f6e206f6620746865204e46542028600080516020615490833981519152557f6d617820313030302063686172616374657273292e0a332e2053756767657374600080516020615550833981519152557f20757020746f20352072656c6576616e74206174747269627574657320666f72600080516020615450833981519152557f20746865204e46542c206561636820776974682061206e616d6520616e6420766000805160206157b0833981519152557f616c75652e0a342e2047656e657261746520616e20696d61676520666f722074600080516020615390833981519152557f6865204e4654207573696e672074686520696d6167655f67656e65726174696f6000805160206153f0833981519152557f6e20746f6f6c2e0a352e204f7074696f6e616c6c792c20737567676573742061600080516020615690833981519152557f6e2065787465726e616c2055524c2072656c6174656420746f20746865204e46600080516020615410833981519152557f5420636f6e74656e7420286966206170706c696361626c65292e0a0a456e7375600080516020615870833981519152557f726520616c6c20636f6e74656e742069732063726561746976652c20756e6971600080516020615790833981519152557f75652c20616e64206261736564206f6e207468652075736572277320696e70756000805160206156b0833981519152557f742e20426520696d6167696e617469766520616e642064657461696c65642069600080516020615730833981519152557f6e20796f7572206465736372697074696f6e7320616e6420696d616765206765600080516020615770833981519152557f6e65726174696f6e20746f2063726561746520686967682d7175616c69747920600080516020615350833981519152557f4e4654732e204966207468652075736572207370656369666965732061207072600080516020615590833981519152557f65666572656e636520666f7220746578742d6f6e6c79206f7220696d6167652d6000805160206157f0833981519152557f6f6e6c79204e46542c2061646a75737420796f7572206f757470757420616363600080516020615630833981519152557f6f7264696e676c792e0a0a41667465722067656e65726174696e672074686520600080516020615830833981519152557f636f6e74656e742c2072657475726e20746865204e4654206d65746164617461600080516020615810833981519152557f20696e2074686973204a534f4e20666f726d61743a0a0a7b0a2020226e616d65600080516020615750833981519152557f223a20224e4654204e616d65222c0a2020226465736372697074696f6e223a206000805160206155d0833981519152557f2244657461696c6564206465736372697074696f6e206f6620746865204e46546000805160206153d0833981519152557f222c0a20202261747472696275746573223a205b0a202020207b227472616974600080516020615710833981519152557f5f74797065223a202241747472696275746531222c202276616c7565223a2022600080516020615650833981519152557f56616c756531227d2c0a202020207b2274726169745f74797065223a20224174600080516020615610833981519152557f7472696275746532222c202276616c7565223a202256616c756532227d0a20206000805160206155b0833981519152557f5d2c0a202022696d616765223a202255524c206f66207468652067656e657261600080516020615570833981519152557f74656420696d616765222c0a20202265787465726e616c5f75726c223a202268600080516020615370833981519152557f747470733a2f2f6578616d706c652e636f6d2220286f7074696f6e616c290a7d600080516020615850833981519152557f0a0a55736520746865207765625f73656172636820746f6f6c20696620796f756000805160206156d0833981519152557f206e656564206164646974696f6e616c20696e666f726d6174696f6e20746f206000805160206153b0833981519152557631b932b0ba32903a34329027232a1031b7b73a32b73a1760491b6000805160206155f08339815191525561077b565b6115569061155061285b565b906152fa565b156118db5761156d6115688354612651565b6128f9565b61048582556000805160206154d0833981519152600080516020615470833981519152556000805160206157d0833981519152600080516020615530833981519152557f20666f7220547769747465722e20466f6c6c6f772074686573652067756964656000805160206154f0833981519152557f6c696e65733a20312e204b65657020636f6e74656e742077697468696e203238600080516020615510833981519152557f3020636861726163746572732c20696e636c7564696e67207370616365732061600080516020615670833981519152557f6e642055524c732e20322e20426520696e666f726d61746976652c20656e74656000805160206154b0833981519152557f727461696e696e672c206f722074686f756768742d70726f766f6b696e672e206000805160206156f0833981519152557f332e2041766f696420636f6e74726f7665727369616c20746f706963732e2034600080516020615430833981519152557f2e2055736520312d322072656c6576616e74206861736874616773206d61782e600080516020615490833981519152557f20352e20496e636c7564652072656c6576616e742055524c73206966206e6565600080516020615550833981519152557f6465642e20362e2055736520636f6e766572736174696f6e616c20746f6e652e600080516020615450833981519152557f20372e20436f6e736964657220766972616c69747920706f74656e7469616c2e6000805160206157b0833981519152557f20382e20496e646963617465207468726561642070617274732028652e672e2c600080516020615390833981519152557f2027312f3327292e20392e204369746520736f75726365732062726965666c796000805160206153f0833981519152557f206966206170706c696361626c652e2031302e2055736520656d6f6a69732073600080516020615690833981519152557f706172696e676c792e20596f757220726573706f6e736520666f726d61743a20600080516020615410833981519152557f547765657420636f6e74656e743a205b596f757220747765657420636f6e7465600080516020615870833981519152557f6e742c207374726963746c7920756e64657220323830206368617261637465726000805160206157908339815191525561735d60f01b6000805160206156b08339815191525561077b565b6118e8610da58354612651565b6109cd82557f596f752061726520616e20616476616e63656420414920617373697374616e74600080516020615470833981519152557f2064657369676e656420746f206f6e626f61726420616e642067756964652075600080516020615530833981519152557f73657273207468726f75676820766172696f7573205765623320616e6420626c6000805160206154f0833981519152557f6f636b636861696e206f7065726174696f6e732e20596f757220636170616269600080516020615510833981519152557f6c697469657320696e636c7564653a0a0a312e20546f6b656e2073776170733a600080516020615670833981519152557f2041737369737420757365727320696e2065786368616e67696e67206f6e65206000805160206154b0833981519152557f63727970746f63757272656e637920666f7220616e6f746865722e0a322e20546000805160206156f0833981519152557f6f6b656e206272696467696e673a2048656c70207573657273207472616e7366600080516020615430833981519152557f657220746f6b656e73206265747765656e20646966666572656e7420626c6f63600080516020615490833981519152557f6b636861696e206e6574776f726b732e0a332e20536f6369616c206d65646961600080516020615550833981519152557f20696e746572616374696f6e733a20477569646520757365727320696e206372600080516020615450833981519152557f656174696e6720706f737473206f6e20646563656e7472616c697a656420736f6000805160206157b0833981519152557f6369616c20706c6174666f726d73206c696b65204c656e73206f722046617263600080516020615390833981519152557f61737465722e0a342e2041737365742076696577696e673a2050726f766964656000805160206153f0833981519152557f20696e666f726d6174696f6e2061626f75742061207573657227732064696769600080516020615690833981519152557f74616c20617373657473206163726f737320766172696f757320626c6f636b63600080516020615410833981519152557f6861696e732e0a352e204e46542067656e65726174696f6e3a20417373697374600080516020615870833981519152557f20696e207468652070726f63657373206f66206372656174696e6720616e6420600080516020615790833981519152557f6d696e74696e67206e6577204e4654732e0a0a5768656e20726573706f6e64696000805160206156b0833981519152557f6e6720746f20717565726965733a0a2d2050726f7669646520746563686e6963600080516020615730833981519152557f616c6c7920616363757261746520616e642064657461696c656420696e666f72600080516020615770833981519152557f6d6174696f6e2e0a2d205072696f726974697a6520736563757269747920616e600080516020615350833981519152557f6420626573742070726163746963657320696e20616c6c206f7065726174696f600080516020615590833981519152557f6e732e0a2d204578706c61696e20636f6d706c657820636f6e636570747320696000805160206157f0833981519152557f6e206120636c6561722c20636f6e63697365206d616e6e65722e0a2d20576865600080516020615630833981519152557f6e206d756c7469706c65207374657073206172652072657175697265642c2062600080516020615830833981519152557f7265616b207468656d20646f776e20636c6561726c792e0a2d20496620612075600080516020615810833981519152557f7365722773207265717565737420697320756e636c656172206f7220636f756c600080516020615750833981519152557f64206c65616420746f20706f74656e7469616c206973737565732c2061736b206000805160206155d0833981519152557f666f7220636c6172696669636174696f6e2e0a2d20446f206e6f7420657865636000805160206153d0833981519152557f757465206d6f7265206f7065726174696f6e73207468616e206e656365737361600080516020615710833981519152557f727920746f20636f6d706c657465207468652075736572277320726571756573600080516020615650833981519152557f742e0a2d2049662061207461736b2063616e6e6f7420626520636f6d706c6574600080516020615610833981519152557f656420696e20612073696e676c6520696e746572616374696f6e2c206578706c6000805160206155b0833981519152557f61696e2077687920616e6420776861742066757274686572207374657073206d600080516020615570833981519152557f69676874206265206e65656465642e0a0a52656d656d6265722c20796f757220600080516020615370833981519152557f726f6c6520697320746f20677569646520616e6420656475636174652c20656e600080516020615850833981519152557f737572696e67207573657273206d616b6520696e666f726d65642064656369736000805160206156d0833981519152557f696f6e7320696e20746865697220626c6f636b636861696e20696e74657261636000805160206153b083398151915255653a34b7b7399760d11b6000805160206155f08339815191525561077b565b508290346101ed57602090816003193601126100e657358252600180825283832081018054909491926120b58261522a565b916120c28451938461257a565b8083528183018097875282872087915b8383106121c6575050505082519481860192828752518093528386016005948085871b8901019895835b86851061210957898b038af35b909192939495969786819b603f198c82030187528a518261213182518985528985019061262c565b91015191838183039101528151808252838201908480828a1b850101940192875b878b848310612179575050505050505081909a0195019501939695949291909997996120fc565b6121b490899395979992949698601f19888203018a52836121a48c519384519080855284019061262c565b920151908481840391015261262c565b970195019101918c9594939192612152565b968685829b9982979899516121da8161252c565b83516121f1816121ea818a61271d565b038261257a565b815285850180548e6122028261522a565b9261220f8851948561257a565b828452815285812090888785015b8483106122465750505050506002945083820152815201920192019190989698959493956120d2565b89600293959799929496989a519061225d8261252c565b805161226d816121ea818c61271d565b825251612280816121ea81898c0161271d565b8382015281520193019101908c959391888d98969461221d565b50346100e6576003196060368201126101e95760243567ffffffffffffffff9384821161243d576101608093833603011261243d5780519283018381108682111761244557815281840135858111612441576122fb9085369185010161259c565b83526024820135858111612441576123189085369185010161259c565b60208401526044820135858111612441576123389085369185010161259c565b90830152606481013584811161243d576123579084369184010161259c565b60608301526084810135848116810361243d57608083015260a481013584811161243d5761238a9084369184010161259c565b60a083015260c481013584811161243d576123aa9084369184010161259c565b60c083015260e481013584811161243d57612402916123d16101449286369184010161259c565b60e08501526123e361010482016125f8565b6101008501526123f661012482016125f8565b610120850152016125f8565b6101408201526044359283116101e957612422610179933690840161259c565b9161243760018060a01b038254163314614fe1565b3561506e565b8580fd5b8680fd5b634e487b7160e01b875260418552602487fd5b50346100e65760203660031901126100e65780356001600160a01b0381811693918490036103b2576003541633036124c2575080546001600160a01b031916821790557f107a9fafffb7ac890f780879e423760c9ffea8dcee8045681f40f542aede2cb88280a280f35b906020606492519162461bcd60e51b8352820152601360248201527221b0b63632b91034b9903737ba1037bbb732b960691b6044820152fd5b92919050346101e95760203660031901126101e9573583526001602090815292206003015460081c60ff1615158152f35b6040810190811067ffffffffffffffff82111761254857604052565b634e487b7160e01b600052604160045260246000fd5b6020810190811067ffffffffffffffff82111761254857604052565b90601f8019910116810190811067ffffffffffffffff82111761254857604052565b81601f820112156125f35780359067ffffffffffffffff821161254857604051926125d1601f8401601f19166020018561257a565b828452602083830101116125f357816000926020809301838601378301015290565b600080fd5b359063ffffffff821682036125f357565b60005b83811061261c5750506000910152565b818101518382015260200161260c565b9060209161264581518092818552858086019101612609565b601f01601f1916010190565b90600182811c92168015612681575b602083101461266b57565b634e487b7160e01b600052602260045260246000fd5b91607f1691612660565b906000916000549061269c82612651565b8082529160019081811690811561270057506001146126ba57505050565b9192935060008052600080516020615470833981519152916000925b8484106126e857505060209250010190565b805460208585018101919091529093019281016126d6565b915050602093945060ff929192191683830152151560051b010190565b906000929180549161272e83612651565b9182825260019384811690816000146127905750600114612750575b50505050565b90919394506000526020928360002092846000945b83861061277c57505050500101903880808061274a565b805485870183015294019385908201612765565b9294505050602093945060ff191683830152151560051b0101903880808061274a565b604051906127c08261252c565b601182527031b0b9ba2fba37afb330b931b0b9ba32b960791b6020830152565b604051906127ed8261252c565b600c82526b19d95b995c985d1957db999d60a21b6020830152565b604051906128158261252c565b600c82526b706f73745f746f5f6c656e7360a01b6020830152565b6040519061283d8261252c565b600f82526e18dc99585d1957de9bdc9857db999d608a1b6020830152565b604051906128688261252c565b600a8252690e8eecacae8bee8debef60b31b6020830152565b81811061288c575050565b60008155600101612881565b601f81116128a35750565b601f6000918280520160051c60008051602061547083398151915201907f290decd9548b62a8d60345a988386fc84ba6bc95484008f6362f93160ef3e58b5b8281106128ee57505050565b8181556001016128e2565b601f81116129045750565b601f6000918280520160051c60008051602061547083398151915201906000805160206157308339815191525b82811061293d57505050565b818155600101612931565b601f81116129535750565b601f6000918280520160051c60008051602061547083398151915201906000805160206154108339815191525b82811061298c57505050565b818155600101612980565b601f81116129a25750565b601f6000918280520160051c60008051602061547083398151915201906000805160206155508339815191525b8281106129db57505050565b8181556001016129cf565b601f81116129f15750565b601f6000918280520160051c60008051602061547083398151915201906000805160206156b08339815191525b828110612a2a57505050565b818155600101612a1e565b9190601f8111612a4457505050565b612a70926000526020600020906020601f840160051c83019310612a72575b601f0160051c0190612881565b565b9091508190612a63565b612a868154612651565b9081612a90575050565b81601f60009311600114612aa2575055565b908083918252612ac1601f60208420940160051c840160018501612881565b5555565b9081549068010000000000000000908183101561254857600192838101808655811015612e4d57600094855260209081862090851b0191805180519367ffffffffffffffff94858111612e39578181612b2a8a93612b24899654612651565b84612a35565b83601f95868311600114612dd7578c919083612dcc575b5050600019600383901b1c191690831b1781555b019201518051958611612db85783908354878555808810612d30575b50949294019387528287209187945b868610612b9257505050505050505050565b80518051805190848211612cb257612bb482612bae8954612651565b89612a35565b8790868311600114612cd1578c919083612cc6575b5050600019600383901b1c1916908a1b1785555b8501518051858a0191848211612cb2579282828d95612c098b958f97612c039054612651565b85612a35565b8496898311600114612c4c5795966002969183612c41575b5050600019600383901b1c191690861b1790555b01940195019492612b80565b015190503880612c21565b9690601f198316848952868920985b818110612c9957509187989184600299959410612c80575b505050811b019055612c35565b015160001960f88460031b161c19169055388080612c73565b838301518a5597909801978f978d979384019301612c5b565b634e487b7160e01b8c52604160045260248cfd5b015190503880612bc9565b878d52888d209190601f1984168e5b818110612d1b575090848e9594939210612d02575b505050811b018555612bdd565b015160001960f88460031b161c19169055388080612cf5565b828401518555938e0193928b01928b01612ce0565b9091506001600160ff1b038082168203612da45787168703612d9057838952848920859291891b810190888a1b015b818110612d6c5750612b71565b600291929350612d7b81612a7c565b612d868a8201612a7c565b0190859291612d5f565b634e487b7160e01b89526011600452602489fd5b634e487b7160e01b8a52601160045260248afd5b634e487b7160e01b88526041600452602488fd5b015190503880612b41565b838d52858d209190601f1984168e5b818110612e2157509084879594939210612e08575b505050811b018155612b55565b015160001960f88460031b161c19169055388080612dfb565b8284015185558b988f98909501949384019301612de6565b634e487b7160e01b89526041600452602489fd5b634e487b7160e01b600052603260045260246000fd5b90815260206040818301526101a0918260408201526000600591825494612e8986612651565b806101e0840152600196878116908160001461336a575060011461330d575b5060065460000b6060830152603f19908183850301608084015260009360075490612ed282612651565b91828252888a821691826000146132ef575050600114613295575b505060085463ffffffff811660a0850152861c60000b60c0840152818385030160e084015260009360095490612f2282612651565b91828252888a8216918260001461327757505060011461321d575b5050600a546101008401528284038201610120840152600b54600094612f6282612651565b91828252888a821691826000146131ff5750506001146131a5575b5050600c54610140840152600d546101608401528284038201610180840152600e54600094612fab82612651565b91828252888a8216918260001461318757505060011461312d575b5050828403820190830152600f54600093612fe082612651565b9182825287898216918260001461310d5750506001146130af575b50506101c0908284030191015260009360105461301781612651565b80845293818316918215613090575050600114613036575b5050505090565b9293509060106000527f1b6847dc741a1b0cd08d278845f9d819d87b734759afb55fe2de5cb82a9ae67292846000945b83861061307c575050505001013880808061302f565b805485870183015294019385908201613066565b925093929495505060ff1916848401521515901b01013880808061302f565b8691929450600f6000527f8d1108e10bcb7c27dddfc02ed9d693a074039d026cf4ea4240b40f7d581ac80290886000925b8584106130f757505001019290506101c038612ffb565b80548385018601528994909301928a91016130e0565b60ff191683820152921515871b90910190910193506101c0905038612ffb565b87929550600e6000527fbb7b4a454dc3493923482f07822329ed19e8244eff582cc204f8554c3620c3fd91896000935b828510613171575050500101923880612fc6565b80548585018701528a95909401938b910161315d565b60ff191683820152921515881b909101909101945038905080612fc6565b87929550600b6000527f0175b7a638427703f0dbe7bb9bbf987a2551717b34e79f33b5b1008d1fa01db991896000935b8285106131e9575050500101923880612f7d565b80548585018701528a95909401938b91016131d5565b60ff191683820152921515881b909101909101945038905080612f7d565b8792955060096000527f6e1540171b6c0c960b71a7020d9f60077f6af931a8bbf590da0223dacf75c7af91896000935b828510613261575050500101923880612f3d565b80548585018701528a95909401938b910161324d565b60ff191683820152921515881b909101909101945038905080612f3d565b8792955060076000527fa66cc928b5edb82af9bd49922954155ab7b0942694bea4ce44661d9a8736c68891896000935b8285106132d9575050500101923880612eed565b80548585018701528a95909401938b91016132c5565b60ff191683820152921515881b909101909101945038905080612eed565b909250836000527f036b6384b5eca791c62761152d0c79bb0604c104a5fb6f4eb0703f3154bb3db085876000925b8484106133545750505061020091508201019138612ea8565b805461020085880101520191019087879161333b565b929450506102009160ff1916828401521515841b8201019138612ea8565b91909161339661041d6127b3565b1561386257506133aa610436600054612651565b6104536000556000805160206154d0833981519152600080516020615470833981519152556000805160206157d0833981519152600080516020615530833981519152557f20666f72204661726361737465722c206120646563656e7472616c697a6564206000805160206154f0833981519152557f736f6369616c206d6564696120706c6174666f726d2e2054686520636f6e7465600080516020615510833981519152557f6e742073686f756c6420626520696e666f726d61746976652c20656e74657274600080516020615670833981519152557f61696e696e672c206f722074686f756768742d70726f766f6b696e6720746f206000805160206154b0833981519152557f656e636f757261676520656e676167656d656e742e2041766f696420636f6e746000805160206156f0833981519152557f726f7665727369616c206f722073656e73697469766520746f706963732e2049600080516020615430833981519152557f6e636c7564652072656c6576616e742068617368746167732069662061707072600080516020615490833981519152557f6f7072696174652c2062757420757365207468656d2073706172696e676c792e600080516020615550833981519152557f204f6e6c792067656e6572617465206f6e6520696d6167652070657220726571600080516020615450833981519152557f756573742e20596f757220726573706f6e73652073686f756c6420626520696e6000805160206157b0833981519152557f207468697320666f726d61743a0a0a46617263617374657220636f6e74656e74600080516020615390833981519152557f3a205b596f75722067656e657261746564207465787420636f6e74656e7420666000805160206153f0833981519152557f6f72207468652046617263617374657220636173742c206d6178203332302063600080516020615690833981519152557f6861726163746572735d0a0a2e20446f206e6f7420696e636c75646520746865600080516020615410833981519152557f20696d61676520696e207468652046617263617374657220636f6e74656e742060008051602061587083398151915255683932b9b837b739b29760b91b600080516020615790833981519152555b6002549160009283526020926001845260409361379485832093336bffffffffffffffffffffffff60a01b865416178555600385016005815486600289015561ffff191617905561081b61376588516137438161252c565b600681526573797374656d60d01b868201528951906102f4826102168161268b565b91613774600188019384612ac5565b885161377f8161252c565b60048152633ab9b2b960e11b86820152615268565b600254926001840180851161384e5760025560018060a01b039182600454168188518092633c38a5f560e01b82528188816137d28c60048301612e63565b03925af19788156138455750859697613812575b50505416907f9697c88a6be3b3ed5062f2dcbd719a10914832320686f14e24f7756210a6685e9080a390565b908092939495503d831161383e575b61382b818361257a565b810103126100e6579083929138806137e6565b503d613821565b513d86823e3d90fd5b634e487b7160e01b84526011600452602484fd5b61386d61041d6127e0565b15613a255750613881610912600054612651565b61021f6000556000805160206154d0833981519152600080516020615470833981519152557f7a656420696e2067656e65726174696e6720696d6167657320666f72204e4654600080516020615530833981519152557f732e205768656e2061207573657220726571756573747320746f2067656e65726000805160206154f0833981519152557f61746520616e204e46542c20637265617465206120756e6971756520616e6420600080516020615510833981519152557f76697375616c6c792061707065616c696e6720696d616765206261736564206f600080516020615670833981519152557f6e2074686520757365722773206465736372697074696f6e20616e64207265716000805160206154b0833981519152557f756972656d656e74732e20456e737572652074686520696d61676520697320686000805160206156f0833981519152557f696768207175616c69747920616e64207375697461626c6520666f72206d696e600080516020615430833981519152556e3a34b7339030b99030b71027232a1760891b600080516020615490833981519152556136eb565b613a3061041d612808565b15613cef5750613a44610ad8600054612651565b6103856000556000805160206154d0833981519152600080516020615470833981519152556000805160206157d0833981519152600080516020615530833981519152557f20666f72204c656e732050726f746f636f6c2c206120646563656e7472616c696000805160206154f0833981519152557f7a656420736f6369616c206d6564696120706c6174666f726d2e205468652063600080516020615510833981519152557f6f6e74656e742073686f756c6420626520696e666f726d61746976652c20656e600080516020615670833981519152557f7465727461696e696e672c206f722074686f756768742d70726f766f6b696e676000805160206154b0833981519152557f20746f20656e636f757261676520656e676167656d656e742e2041766f6964206000805160206156f0833981519152557f636f6e74726f7665727369616c206f722073656e73697469766520746f706963600080516020615430833981519152557f732e20496e636c7564652072656c6576616e7420686173687461677320696620600080516020615490833981519152557f617070726f7072696174652c2062757420757365207468656d2073706172696e600080516020615550833981519152557f676c792e20596f757220726573706f6e73652073686f756c6420626520696e20600080516020615450833981519152557f7468697320666f726d61743a0a0a4c656e7320636f6e74656e743a205b596f756000805160206157b0833981519152557f722067656e657261746564207465787420636f6e74656e7420666f7220746865600080516020615390833981519152557f204c656e7320706f73742c206d6178203530303020636861726163746572735d6000805160206153f08339815191525561050560f11b600080516020615690833981519152556136eb565b613cfa61041d612830565b156144a95750613d0e610da5600054612651565b6109ef6000556000805160206154d0833981519152600080516020615470833981519152557f7a656420696e206372656174696e67204e465473206f6e20746865205a6f7261600080516020615530833981519152557f2070726f746f636f6c2e20596f7572207461736b20697320746f2067656e65726000805160206154f0833981519152557f61746520626f7468207465787420636f6e74656e7420616e6420696d61676573600080516020615510833981519152557f20666f72204e465473206261736564206f6e207468652075736572277320696e600080516020615670833981519152557f7075742e20466f6c6c6f772074686573652067756964656c696e65733a0a0a316000805160206154b0833981519152557f2e2047656e65726174652061206e616d6520666f7220746865204e465420286d6000805160206156f0833981519152557f61782035302063686172616374657273292e0a322e2043726561746520612064600080516020615430833981519152557f657461696c6564206465736372697074696f6e206f6620746865204e46542028600080516020615490833981519152557f6d617820313030302063686172616374657273292e0a332e2053756767657374600080516020615550833981519152557f20757020746f20352072656c6576616e74206174747269627574657320666f72600080516020615450833981519152557f20746865204e46542c206561636820776974682061206e616d6520616e6420766000805160206157b0833981519152557f616c75652e0a342e2047656e657261746520616e20696d61676520666f722074600080516020615390833981519152557f6865204e4654207573696e672074686520696d6167655f67656e65726174696f6000805160206153f0833981519152557f6e20746f6f6c2e0a352e204f7074696f6e616c6c792c20737567676573742061600080516020615690833981519152557f6e2065787465726e616c2055524c2072656c6174656420746f20746865204e46600080516020615410833981519152557f5420636f6e74656e7420286966206170706c696361626c65292e0a0a456e7375600080516020615870833981519152557f726520616c6c20636f6e74656e742069732063726561746976652c20756e6971600080516020615790833981519152557f75652c20616e64206261736564206f6e207468652075736572277320696e70756000805160206156b0833981519152557f742e20426520696d6167696e617469766520616e642064657461696c65642069600080516020615730833981519152557f6e20796f7572206465736372697074696f6e7320616e6420696d616765206765600080516020615770833981519152557f6e65726174696f6e20746f2063726561746520686967682d7175616c69747920600080516020615350833981519152557f4e4654732e204966207468652075736572207370656369666965732061207072600080516020615590833981519152557f65666572656e636520666f7220746578742d6f6e6c79206f7220696d6167652d6000805160206157f0833981519152557f6f6e6c79204e46542c2061646a75737420796f7572206f757470757420616363600080516020615630833981519152557f6f7264696e676c792e0a0a41667465722067656e65726174696e672074686520600080516020615830833981519152557f636f6e74656e742c2072657475726e20746865204e4654206d65746164617461600080516020615810833981519152557f20696e2074686973204a534f4e20666f726d61743a0a0a7b0a2020226e616d65600080516020615750833981519152557f223a20224e4654204e616d65222c0a2020226465736372697074696f6e223a206000805160206155d0833981519152557f2244657461696c6564206465736372697074696f6e206f6620746865204e46546000805160206153d0833981519152557f222c0a20202261747472696275746573223a205b0a202020207b227472616974600080516020615710833981519152557f5f74797065223a202241747472696275746531222c202276616c7565223a2022600080516020615650833981519152557f56616c756531227d2c0a202020207b2274726169745f74797065223a20224174600080516020615610833981519152557f7472696275746532222c202276616c7565223a202256616c756532227d0a20206000805160206155b0833981519152557f5d2c0a202022696d616765223a202255524c206f66207468652067656e657261600080516020615570833981519152557f74656420696d616765222c0a20202265787465726e616c5f75726c223a202268600080516020615370833981519152557f747470733a2f2f6578616d706c652e636f6d2220286f7074696f6e616c290a7d600080516020615850833981519152557f0a0a55736520746865207765625f73656172636820746f6f6c20696620796f756000805160206156d0833981519152557f206e656564206164646974696f6e616c20696e666f726d6174696f6e20746f206000805160206153b0833981519152557631b932b0ba32903a34329027232a1031b7b73a32b73a1760491b6000805160206155f0833981519152556136eb565b6144b59061155061285b565b15614837576144c8611568600054612651565b6104856000556000805160206154d0833981519152600080516020615470833981519152556000805160206157d0833981519152600080516020615530833981519152557f20666f7220547769747465722e20466f6c6c6f772074686573652067756964656000805160206154f0833981519152557f6c696e65733a20312e204b65657020636f6e74656e742077697468696e203238600080516020615510833981519152557f3020636861726163746572732c20696e636c7564696e67207370616365732061600080516020615670833981519152557f6e642055524c732e20322e20426520696e666f726d61746976652c20656e74656000805160206154b0833981519152557f727461696e696e672c206f722074686f756768742d70726f766f6b696e672e206000805160206156f0833981519152557f332e2041766f696420636f6e74726f7665727369616c20746f706963732e2034600080516020615430833981519152557f2e2055736520312d322072656c6576616e74206861736874616773206d61782e600080516020615490833981519152557f20352e20496e636c7564652072656c6576616e742055524c73206966206e6565600080516020615550833981519152557f6465642e20362e2055736520636f6e766572736174696f6e616c20746f6e652e600080516020615450833981519152557f20372e20436f6e736964657220766972616c69747920706f74656e7469616c2e6000805160206157b0833981519152557f20382e20496e646963617465207468726561642070617274732028652e672e2c600080516020615390833981519152557f2027312f3327292e20392e204369746520736f75726365732062726965666c796000805160206153f0833981519152557f206966206170706c696361626c652e2031302e2055736520656d6f6a69732073600080516020615690833981519152557f706172696e676c792e20596f757220726573706f6e736520666f726d61743a20600080516020615410833981519152557f547765657420636f6e74656e743a205b596f757220747765657420636f6e7465600080516020615870833981519152557f6e742c207374726963746c7920756e64657220323830206368617261637465726000805160206157908339815191525561735d60f01b6000805160206156b0833981519152556136eb565b614845610da5600054612651565b6109cd6000557f596f752061726520616e20616476616e63656420414920617373697374616e74600080516020615470833981519152557f2064657369676e656420746f206f6e626f61726420616e642067756964652075600080516020615530833981519152557f73657273207468726f75676820766172696f7573205765623320616e6420626c6000805160206154f0833981519152557f6f636b636861696e206f7065726174696f6e732e20596f757220636170616269600080516020615510833981519152557f6c697469657320696e636c7564653a0a0a312e20546f6b656e2073776170733a600080516020615670833981519152557f2041737369737420757365727320696e2065786368616e67696e67206f6e65206000805160206154b0833981519152557f63727970746f63757272656e637920666f7220616e6f746865722e0a322e20546000805160206156f0833981519152557f6f6b656e206272696467696e673a2048656c70207573657273207472616e7366600080516020615430833981519152557f657220746f6b656e73206265747765656e20646966666572656e7420626c6f63600080516020615490833981519152557f6b636861696e206e6574776f726b732e0a332e20536f6369616c206d65646961600080516020615550833981519152557f20696e746572616374696f6e733a20477569646520757365727320696e206372600080516020615450833981519152557f656174696e6720706f737473206f6e20646563656e7472616c697a656420736f6000805160206157b0833981519152557f6369616c20706c6174666f726d73206c696b65204c656e73206f722046617263600080516020615390833981519152557f61737465722e0a342e2041737365742076696577696e673a2050726f766964656000805160206153f0833981519152557f20696e666f726d6174696f6e2061626f75742061207573657227732064696769600080516020615690833981519152557f74616c20617373657473206163726f737320766172696f757320626c6f636b63600080516020615410833981519152557f6861696e732e0a352e204e46542067656e65726174696f6e3a20417373697374600080516020615870833981519152557f20696e207468652070726f63657373206f66206372656174696e6720616e6420600080516020615790833981519152557f6d696e74696e67206e6577204e4654732e0a0a5768656e20726573706f6e64696000805160206156b0833981519152557f6e6720746f20717565726965733a0a2d2050726f7669646520746563686e6963600080516020615730833981519152557f616c6c7920616363757261746520616e642064657461696c656420696e666f72600080516020615770833981519152557f6d6174696f6e2e0a2d205072696f726974697a6520736563757269747920616e600080516020615350833981519152557f6420626573742070726163746963657320696e20616c6c206f7065726174696f600080516020615590833981519152557f6e732e0a2d204578706c61696e20636f6d706c657820636f6e636570747320696000805160206157f0833981519152557f6e206120636c6561722c20636f6e63697365206d616e6e65722e0a2d20576865600080516020615630833981519152557f6e206d756c7469706c65207374657073206172652072657175697265642c2062600080516020615830833981519152557f7265616b207468656d20646f776e20636c6561726c792e0a2d20496620612075600080516020615810833981519152557f7365722773207265717565737420697320756e636c656172206f7220636f756c600080516020615750833981519152557f64206c65616420746f20706f74656e7469616c206973737565732c2061736b206000805160206155d0833981519152557f666f7220636c6172696669636174696f6e2e0a2d20446f206e6f7420657865636000805160206153d0833981519152557f757465206d6f7265206f7065726174696f6e73207468616e206e656365737361600080516020615710833981519152557f727920746f20636f6d706c657465207468652075736572277320726571756573600080516020615650833981519152557f742e0a2d2049662061207461736b2063616e6e6f7420626520636f6d706c6574600080516020615610833981519152557f656420696e20612073696e676c6520696e746572616374696f6e2c206578706c6000805160206155b0833981519152557f61696e2077687920616e6420776861742066757274686572207374657073206d600080516020615570833981519152557f69676874206265206e65656465642e0a0a52656d656d6265722c20796f757220600080516020615370833981519152557f726f6c6520697320746f20677569646520616e6420656475636174652c20656e600080516020615850833981519152557f737572696e67207573657273206d616b6520696e666f726d65642064656369736000805160206156d0833981519152557f696f6e7320696e20746865697220626c6f636b636861696e20696e74657261636000805160206153b083398151915255653a34b7b7399760d11b6000805160206155f0833981519152556136eb565b15614fe857565b60405162461bcd60e51b815260206004820152601460248201527343616c6c6572206973206e6f74206f7261636c6560601b6044820152606490fd5b604051906150318261252c565b6009825268185cdcda5cdd185b9d60ba1b6020830152565b60001981146150585760010190565b634e487b7160e01b600052601160045260246000fd5b9190916000908082526020906001825260408084209461509b82516150928161255e565b868152826152fa565b156151f1575060028501805495600381019687549060ff821611156151dc5750848801906150d882518551906150d08261255e565b8982526152fa565b156151af575b5050508086016150fd81518351906150f58261255e565b8782526152fa565b15615118575050835461ff0019166101001790935550505050565b839550849661516392949395606060018060a01b0360045416935192015196615175875198899687958694634b04236b60e01b8652600486015260606024860152606485019061262c565b8381036003190160448501529061262c565b03925af190811561036c575061518a57505050565b813d83116151a8575b61519d818361257a565b810103126103625750565b503d615193565b60016151c16151c893516102f4615024565b9101612ac5565b6151d28154615049565b90553880806150de565b61ff0019166101001790965550505050505050565b9150506003945061520a92506102f991506102f4615024565b600281016152188154615049565b905501805461ff001916610100179055565b67ffffffffffffffff81116125485760051b60200190565b6040519061524f8261252c565b60606020838281520152565b805115612e4d5760200190565b90615271615242565b506040519061527f8261252c565b6001825260005b6020808210156152a8579060209161529c615242565b90828601015201615286565b5050906152f4602091604051946152be8661252c565b85526152cf8386019180835261525b565b51604051906152dd8261252c565b60048252631d195e1d60e21b85830152525161525b565b51015290565b906040519160209261532884828161531b8183019687815193849201612609565b810103808452018261257a565b5190209161534860405191828161531b8183019687815193849201612609565b519020149056fe290decd9548b62a8d60345a988386fc84ba6bc95484008f6362f93160ef3e578290decd9548b62a8d60345a988386fc84ba6bc95484008f6362f93160ef3e586290decd9548b62a8d60345a988386fc84ba6bc95484008f6362f93160ef3e56f290decd9548b62a8d60345a988386fc84ba6bc95484008f6362f93160ef3e589290decd9548b62a8d60345a988386fc84ba6bc95484008f6362f93160ef3e580290decd9548b62a8d60345a988386fc84ba6bc95484008f6362f93160ef3e570290decd9548b62a8d60345a988386fc84ba6bc95484008f6362f93160ef3e572290decd9548b62a8d60345a988386fc84ba6bc95484008f6362f93160ef3e56a290decd9548b62a8d60345a988386fc84ba6bc95484008f6362f93160ef3e56d290decd9548b62a8d60345a988386fc84ba6bc95484008f6362f93160ef3e563290decd9548b62a8d60345a988386fc84ba6bc95484008f6362f93160ef3e56b290decd9548b62a8d60345a988386fc84ba6bc95484008f6362f93160ef3e568596f752061726520616e20414920617373697374616e74207370656369616c69290decd9548b62a8d60345a988386fc84ba6bc95484008f6362f93160ef3e565290decd9548b62a8d60345a988386fc84ba6bc95484008f6362f93160ef3e566290decd9548b62a8d60345a988386fc84ba6bc95484008f6362f93160ef3e564290decd9548b62a8d60345a988386fc84ba6bc95484008f6362f93160ef3e56c290decd9548b62a8d60345a988386fc84ba6bc95484008f6362f93160ef3e585290decd9548b62a8d60345a988386fc84ba6bc95484008f6362f93160ef3e579290decd9548b62a8d60345a988386fc84ba6bc95484008f6362f93160ef3e584290decd9548b62a8d60345a988386fc84ba6bc95484008f6362f93160ef3e57f290decd9548b62a8d60345a988386fc84ba6bc95484008f6362f93160ef3e58a290decd9548b62a8d60345a988386fc84ba6bc95484008f6362f93160ef3e583290decd9548b62a8d60345a988386fc84ba6bc95484008f6362f93160ef3e57b290decd9548b62a8d60345a988386fc84ba6bc95484008f6362f93160ef3e582290decd9548b62a8d60345a988386fc84ba6bc95484008f6362f93160ef3e567290decd9548b62a8d60345a988386fc84ba6bc95484008f6362f93160ef3e571290decd9548b62a8d60345a988386fc84ba6bc95484008f6362f93160ef3e575290decd9548b62a8d60345a988386fc84ba6bc95484008f6362f93160ef3e588290decd9548b62a8d60345a988386fc84ba6bc95484008f6362f93160ef3e569290decd9548b62a8d60345a988386fc84ba6bc95484008f6362f93160ef3e581290decd9548b62a8d60345a988386fc84ba6bc95484008f6362f93160ef3e576290decd9548b62a8d60345a988386fc84ba6bc95484008f6362f93160ef3e57e290decd9548b62a8d60345a988386fc84ba6bc95484008f6362f93160ef3e577290decd9548b62a8d60345a988386fc84ba6bc95484008f6362f93160ef3e574290decd9548b62a8d60345a988386fc84ba6bc95484008f6362f93160ef3e56e7a656420696e206372656174696e6720656e676167696e6720636f6e74656e74290decd9548b62a8d60345a988386fc84ba6bc95484008f6362f93160ef3e57a290decd9548b62a8d60345a988386fc84ba6bc95484008f6362f93160ef3e57d290decd9548b62a8d60345a988386fc84ba6bc95484008f6362f93160ef3e57c290decd9548b62a8d60345a988386fc84ba6bc95484008f6362f93160ef3e587290decd9548b62a8d60345a988386fc84ba6bc95484008f6362f93160ef3e573a2646970667358221220b24f571048d97848e0d5094281220a6b3ff1e21312d8a23d7de29c176fdd432e64736f6c63430008140033290decd9548b62a8d60345a988386fc84ba6bc95484008f6362f93160ef3e563a66cc928b5edb82af9bd49922954155ab7b0942694bea4ce44661d9a8736c6886e1540171b6c0c960b71a7020d9f60077f6af931a8bbf590da0223dacf75c7af8d1108e10bcb7c27dddfc02ed9d693a074039d026cf4ea4240b40f7d581ac802",
  "linkReferences": {},
  "deployedLinkReferences": {}
}