{
  "_format": "hh-sol-artifact-1",
  "contractName": "OnboardAgent",
  "sourceName": "contracts/OnboardAgent.sol",
  "abi": [
    {
      "inputs": [
        {
          "internalType": "address",
          "name": "initialOracleAddress",
          "type": "address"
        },
        {
          "internalType": "string",
          "name": "systemPrompt",
          "type": "string"
        }
      ],
      "stateMutability": "nonpayable",
      "type": "constructor"
    },
    {
      "anonymous": false,
      "inputs": [
        {
          "indexed": true,
          "internalType": "address",
          "name": "owner",
          "type": "address"
        },
        {
          "indexed": true,
          "internalType": "uint256",
          "name": "runId",
          "type": "uint256"
        }
      ],
      "name": "AgentRunCreated",
      "type": "event"
    },
    {
      "anonymous": false,
      "inputs": [
        {
          "indexed": true,
          "internalType": "address",
          "name": "newOracleAddress",
          "type": "address"
        }
      ],
      "name": "OracleAddressUpdated",
      "type": "event"
    },
    {
      "inputs": [
        {
          "internalType": "uint256",
          "name": "",
          "type": "uint256"
        }
      ],
      "name": "agentRuns",
      "outputs": [
        {
          "internalType": "address",
          "name": "owner",
          "type": "address"
        },
        {
          "internalType": "uint256",
          "name": "responsesCount",
          "type": "uint256"
        },
        {
          "internalType": "uint8",
          "name": "max_iterations",
          "type": "uint8"
        },
        {
          "internalType": "bool",
          "name": "is_finished",
          "type": "bool"
        }
      ],
      "stateMutability": "view",
      "type": "function"
    },
    {
      "inputs": [
        {
          "internalType": "uint256",
          "name": "agentId",
          "type": "uint256"
        }
      ],
      "name": "getMessageHistory",
      "outputs": [
        {
          "components": [
            {
              "internalType": "string",
              "name": "role",
              "type": "string"
            },
            {
              "components": [
                {
                  "internalType": "string",
                  "name": "contentType",
                  "type": "string"
                },
                {
                  "internalType": "string",
                  "name": "value",
                  "type": "string"
                }
              ],
              "internalType": "struct IOracle.Content[]",
              "name": "content",
              "type": "tuple[]"
            }
          ],
          "internalType": "struct IOracle.Message[]",
          "name": "",
          "type": "tuple[]"
        }
      ],
      "stateMutability": "view",
      "type": "function"
    },
    {
      "inputs": [
        {
          "internalType": "string",
          "name": "intent",
          "type": "string"
        },
        {
          "internalType": "string",
          "name": "data",
          "type": "string"
        }
      ],
      "name": "handleIntent",
      "outputs": [],
      "stateMutability": "nonpayable",
      "type": "function"
    },
    {
      "inputs": [
        {
          "internalType": "uint256",
          "name": "runId",
          "type": "uint256"
        }
      ],
      "name": "isRunFinished",
      "outputs": [
        {
          "internalType": "bool",
          "name": "",
          "type": "bool"
        }
      ],
      "stateMutability": "view",
      "type": "function"
    },
    {
      "inputs": [
        {
          "internalType": "uint256",
          "name": "runId",
          "type": "uint256"
        },
        {
          "internalType": "string",
          "name": "response",
          "type": "string"
        },
        {
          "internalType": "string",
          "name": "errorMessage",
          "type": "string"
        }
      ],
      "name": "onOracleFunctionResponse",
      "outputs": [],
      "stateMutability": "nonpayable",
      "type": "function"
    },
    {
      "inputs": [
        {
          "internalType": "uint256",
          "name": "runId",
          "type": "uint256"
        },
        {
          "components": [
            {
              "internalType": "string",
              "name": "id",
              "type": "string"
            },
            {
              "internalType": "string",
              "name": "content",
              "type": "string"
            },
            {
              "internalType": "string",
              "name": "functionName",
              "type": "string"
            },
            {
              "internalType": "string",
              "name": "functionArguments",
              "type": "string"
            },
            {
              "internalType": "uint64",
              "name": "created",
              "type": "uint64"
            },
            {
              "internalType": "string",
              "name": "model",
              "type": "string"
            },
            {
              "internalType": "string",
              "name": "systemFingerprint",
              "type": "string"
            },
            {
              "internalType": "string",
              "name": "object",
              "type": "string"
            },
            {
              "internalType": "uint32",
              "name": "completionTokens",
              "type": "uint32"
            },
            {
              "internalType": "uint32",
              "name": "promptTokens",
              "type": "uint32"
            },
            {
              "internalType": "uint32",
              "name": "totalTokens",
              "type": "uint32"
            }
          ],
          "internalType": "struct IOracle.OpenAiResponse",
          "name": "response",
          "type": "tuple"
        },
        {
          "internalType": "string",
          "name": "errorMessage",
          "type": "string"
        }
      ],
      "name": "onOracleOpenAiLlmResponse",
      "outputs": [],
      "stateMutability": "nonpayable",
      "type": "function"
    },
    {
      "inputs": [],
      "name": "oracleAddress",
      "outputs": [
        {
          "internalType": "address",
          "name": "",
          "type": "address"
        }
      ],
      "stateMutability": "view",
      "type": "function"
    },
    {
      "inputs": [],
      "name": "prompt",
      "outputs": [
        {
          "internalType": "string",
          "name": "",
          "type": "string"
        }
      ],
      "stateMutability": "view",
      "type": "function"
    },
    {
      "inputs": [
        {
          "internalType": "string",
          "name": "intent",
          "type": "string"
        },
        {
          "internalType": "string",
          "name": "query",
          "type": "string"
        },
        {
          "internalType": "uint8",
          "name": "max_iterations",
          "type": "uint8"
        }
      ],
      "name": "runAgent",
      "outputs": [
        {
          "internalType": "uint256",
          "name": "",
          "type": "uint256"
        }
      ],
      "stateMutability": "nonpayable",
      "type": "function"
    },
    {
      "inputs": [
        {
          "internalType": "address",
          "name": "newOracleAddress",
          "type": "address"
        }
      ],
      "name": "setOracleAddress",
      "outputs": [],
      "stateMutability": "nonpayable",
      "type": "function"
    }
  ],
  "bytecode": "0x608060405234620014145762004c90803803806200001d8162001459565b928339810190604081830312620014145780516001600160a01b038116919082900362001414576020810151906001600160401b03821162001414570182601f8201121562001414578051906001600160401b03821162000d2a576200008d601f8301601f191660200162001459565b9382855260208383010111620014145760005b828110620013fe57505060206000918401015260018060a01b0319338160035416176003556004541617600455805160018060401b03811162000d2a57600054600181811c91168015620013f3575b602082101462000d0957601f81116200139b575b50602091601f821160011462001326579181926000926200131a575b50508160011b916000199060031b1c1916176000555b6040516101a081016001600160401b0381118282101762000d2a576040526200015d62001419565b601381527f6770742d342d747572626f2d707265766965770000000000000000000000000060208201528152601560208201526200019a62001439565b6000815260408201526103e8606082015260156080820152620001bc62001419565b600f81526e7b2274797065223a2274657874227d60881b602082015260a0820152600060c0820152620001ee62001439565b6000815260e0820152600a61010082015260656101208201526040516001600160401b0361056082019081119082111762000d2a57610560810160405261052981527f5b7b2274797065223a2266756e6374696f6e222c2266756e6374696f6e223a7b60208201527f226e616d65223a227765625f736561726368222c226465736372697074696f6e60408201527f223a225365617263682074686520696e7465726e6574222c22706172616d657460608201527f657273223a7b2274797065223a226f626a656374222c2270726f70657274696560808201527f73223a7b227175657279223a7b2274797065223a22737472696e67222c22646560a08201527f736372697074696f6e223a22536561726368207175657279227d7d2c2272657160c08201527f7569726564223a5b227175657279225d7d7d7d2c7b2274797065223a2266756e60e08201527f6374696f6e222c2266756e6374696f6e223a7b226e616d65223a22696d6167656101008201527f5f67656e65726174696f6e222c226465736372697074696f6e223a2247656e656101208201527f726174657320616e20696d616765207573696e672044616c6c652d32222c22706101408201527f6172616d6574657273223a7b2274797065223a226f626a656374222c2270726f6101608201527f70657274696573223a7b2270726f6d7074223a7b2274797065223a22737472696101808201527f6e67222c226465736372697074696f6e223a2244616c6c652d322070726f6d706101a08201527f7420746f2067656e657261746520616e20696d616765227d7d2c2272657175696101c08201527f726564223a5b2270726f6d7074225d7d7d7d2c7b2274797065223a2266756e636101e08201527f74696f6e222c2266756e6374696f6e223a7b226e616d65223a22636f64655f696102008201527f6e746572707265746572222c226465736372697074696f6e223a224576616c756102208201527f6174657320707974686f6e20636f646520696e20612073616e64626f7820656e6102408201527f7669726f6e6d656e742e2054686520656e7669726f6e6d656e742072657365746102608201527f73206f6e20657665727920657865637574696f6e2e20596f75206d75737420736102808201527f656e64207468652077686f6c65207363726970742065766572792074696d65206102a08201527f616e64207072696e7420796f7572206f7574707574732e2053637269707420736102c08201527f686f756c64206265207075726520707974686f6e20636f6465207468617420636102e08201527f616e206265206576616c75617465642e2049742073686f756c6420626520696e6103008201527f20707974686f6e20666f726d6174204e4f54206d61726b646f776e2e205468656103208201527f20636f64652073686f756c64204e4f54206265207772617070656420696e20626103408201527f61636b7469636b732e20416c6c20707974686f6e207061636b6167657320696e6103608201527f636c7564696e672072657175657374732c206d6174706c6f746c69622c2073636103808201527f6970792c206e756d70792c2070616e6461732c206574632061726520617661696103a08201527f6c61626c652e204f75747075742063616e206f6e6c79206265207265616420666103c08201527f726f6d207374646f75742c20616e6420737464696e2e20446f206e6f742075736103e08201527f65207468696e6773206c696b6520706c6f742e73686f772829206173206974206104008201527f77696c6c206e6f7420776f726b2e207072696e74282920616e79206f757470756104208201527f7420616e6420726573756c747320736f20796f752063616e20636170747572656104408201527f20746865206f75747075742e222c22706172616d6574657273223a7b227479706104608201527f65223a226f626a656374222c2270726f70657274696573223a7b22636f6465226104808201527f3a7b2274797065223a22737472696e67222c226465736372697074696f6e223a6104a08201527f22546865207075726520707974686f6e2073637269707420746f2062652065766104c08201527f616c75617465642e2054686520636f6e74656e74732077696c6c20626520696e6104e08201527f206d61696e2e70792e2049742073686f756c64206e6f7420626520696e206d616105008201527f726b646f776e20666f726d61742e227d7d2c227265717569726564223a5b2263610520820152686f6465225d7d7d7d5d60b81b6105408201526101408201526200088b62001419565b60048152636175746f60e01b6020820152610160820152620008ac62001439565b6000815261018082015280518051906001600160401b03821162000d2a5760055490600182811c921680156200130f575b602083101462000d095781601f849311620012b9575b50602090601f83116001146200122a576000926200121e575b50508160011b916000199060031b1c1916176005555b602081015160ff19600654169060ff1617600655604081015180519060018060401b03821162000d2a5760075490600182811c9216801562001213575b602083101462000d095781601f849311620011b2575b50602090601f8311600114620011345760009262001128575b50508160011b916000199060031b1c1916176007555b63ffffffff60608201511660085490608083015160201b64ff00000000169164ffffffffff1916171760085560a081015180519060018060401b03821162000d2a5760095490600182811c921680156200111d575b602083101462000d095781601f849311620010bc575b50602090601f83116001146200103e5760009262001032575b50508160011b916000199060031b1c1916176009555b60c0810151600a5560e08101518051906001600160401b03821162000d2a57600b5490600182811c9216801562001027575b602083101462000d095781601f84931162000fb5575b50602090601f831160011462000f265760009262000f1a575b50508160011b916000199060031b1c191617600b555b610100810151600c55610120810151600d5561014081015180519091906001600160401b03811162000d2a57600e54600181811c9116801562000f0f575b602082101462000d0957601f811162000ea5575b50602092601f821160011462000e3a579281929360009262000e2e575b50508160011b916000199060031b1c191617600e555b610160810151805191906001600160401b03831162000d2a57600f54600181811c9116801562000e23575b602082101462000d0957601f811162000dca575b50602090601f841160011462000d4c5761018093916000918362000d40575b50508160011b916000199060031b1c191617600f555b015180516001600160401b03811162000d2a57601054600181811c9116801562000d1f575b602082101462000d0957601f811162000c9f575b50602091601f821160011462000c355791819260009262000c29575b50508160011b916000199060031b1c1916176010555b6040516137909081620014808239f35b01519050388062000c03565b601f19821692601060005260206000209160005b85811062000c865750836001951062000c6c575b505050811b0160105562000c19565b015160001960f88460031b161c1916905538808062000c5d565b9192602060018192868501518155019401920162000c49565b60106000527f1b6847dc741a1b0cd08d278845f9d819d87b734759afb55fe2de5cb82a9ae672601f830160051c8101916020841062000cfe575b601f0160051c01905b81811062000cf1575062000be7565b6000815560010162000ce2565b909150819062000cd9565b634e487b7160e01b600052602260045260246000fd5b90607f169062000bd3565b634e487b7160e01b600052604160045260246000fd5b01519050388062000b98565b600f600090815260008051602062004c70833981519152929190601f198616905b81811062000db1575091600193918661018097941062000d97575b505050811b01600f5562000bae565b015160001960f88460031b161c1916905538808062000d88565b9293602060018192878601518155019501930162000d6d565b600f60005260008051602062004c70833981519152601f850160051c8101916020861062000e18575b601f0160051c01905b81811062000e0b575062000b79565b6000815560010162000dfc565b909150819062000df3565b90607f169062000b65565b01519050388062000b24565b601f19821693600e60005260206000209160005b86811062000e8c575083600195961062000e72575b505050811b01600e5562000b3a565b015160001960f88460031b161c1916905538808062000e63565b9192602060018192868501518155019401920162000e4e565b600e6000527fbb7b4a454dc3493923482f07822329ed19e8244eff582cc204f8554c3620c3fd601f830160051c8101916020841062000f04575b601f0160051c01905b81811062000ef7575062000b07565b6000815560010162000ee8565b909150819062000edf565b90607f169062000af3565b01519050388062000a9f565b600b600090815293507f0175b7a638427703f0dbe7bb9bbf987a2551717b34e79f33b5b1008d1fa01db991905b601f198416851062000f99576001945083601f1981161062000f7f575b505050811b01600b5562000ab5565b015160001960f88460031b161c1916905538808062000f70565b8181015183556020948501946001909301929091019062000f53565b600b6000529091507f0175b7a638427703f0dbe7bb9bbf987a2551717b34e79f33b5b1008d1fa01db9601f840160051c8101602085106200101f575b90849392915b601f830160051c820181106200100f57505062000a86565b6000815585945060010162000ff7565b508062000ff1565b91607f169162000a70565b01519050388062000a28565b60096000908152935060008051602062004c5083398151915291905b601f1984168510620010a0576001945083601f1981161062001086575b505050811b0160095562000a3e565b015160001960f88460031b161c1916905538808062001077565b818101518355602094850194600190930192909101906200105a565b600960005290915060008051602062004c50833981519152601f840160051c81016020851062001115575b90849392915b601f830160051c820181106200110557505062000a0f565b60008155859450600101620010ed565b5080620010e7565b91607f1691620009f9565b0151905038806200098e565b60076000908152935060008051602062004c3083398151915291905b601f198416851062001196576001945083601f198116106200117c575b505050811b01600755620009a4565b015160001960f88460031b161c191690553880806200116d565b8181015183556020948501946001909301929091019062001150565b600760005290915060008051602062004c30833981519152601f840160051c8101602085106200120b575b90849392915b601f830160051c82018110620011fb57505062000975565b60008155859450600101620011e3565b5080620011dd565b91607f16916200095f565b0151905038806200090c565b6005600090815293507f036b6384b5eca791c62761152d0c79bb0604c104a5fb6f4eb0703f3154bb3db091905b601f19841685106200129d576001945083601f1981161062001283575b505050811b0160055562000922565b015160001960f88460031b161c1916905538808062001274565b8181015183556020948501946001909301929091019062001257565b90915060056000526020600020601f840160051c81016020851062001307575b90849392915b601f830160051c82018110620012f7575050620008f3565b60008155859450600101620012df565b5080620012d9565b91607f1691620008dd565b0151905038806200011f565b6000808052601f1983169360008051602062004c108339815191529290915b858110620013825750836001951062001368575b505050811b0160005562000135565b015160001960f88460031b161c1916905538808062001359565b9192602060018192868501518155019401920162001345565b6000805260008051602062004c10833981519152601f830160051c81019160208410620013e8575b601f0160051c01905b818110620013db575062000103565b60008155600101620013cc565b9091508190620013c3565b90607f1690620000ef565b80602080928401015182828801015201620000a0565b600080fd5b60408051919082016001600160401b0381118382101762000d2a57604052565b60405190602082016001600160401b0381118382101762000d2a57604052565b6040519190601f01601f191682016001600160401b0381118382101762000d2a5760405256fe6080604081815260048036101561001557600080fd5b600092833560e01c9081632eab9c8114611667575080634c69c00f146115c45780634cecd88e1461140357806354a470fc146111ec5780635549daf5146103515780637397454d146101ce5780637c65d7111461018c5780638736f05414610111578063a89ae4ba146100ea5763c63b02951461009157600080fd5b346100e65760203660031901126100e6578160809360ff9235815260016020522060018060a01b03815416926003600283015492015491815194855260208501528282169084015260081c1615156060820152f35b8280fd5b50346100e657826003193601126100e6575490516001600160a01b03909116815260209150f35b5090346100e6573660031901126101885767ffffffffffffffff8135818111610184576101419036908401611708565b916024359182116101845761015891369101611708565b61016961016361191f565b836134c5565b1561017b5761017791612378565b5080f35b61017791612378565b8380fd5b5080fd5b50503461018857816003193601126101885780516101ca916101b8826101b1816117f7565b03836116e6565b51918291602083526020830190611798565b0390f35b509190346101885760603660031901126101885767ffffffffffffffff90833560243583811161034d576102059036908701611708565b9260443590811161034d5761021d9036908701611708565b855490936001600160a01b039161023790831633146131ac565b828652602094600186528487209160ff600384015460081c16610318579260026102c896959361029d6102948b8d966102808d9a928c5190610278826116ca565b8152826134c5565b15610310575b5061028f6131ef565b613433565b60018301611ab5565b016102a88154613214565b905581541690878551809781958294633c38a5f560e01b84528301611e53565b03925af190811561030757506102dc578280f35b813d8311610300575b6102ef81836116e6565b810103126102fd5781808280f35b80fd5b503d6102e5565b513d85823e3d90fd5b90508d610286565b855162461bcd60e51b8152808a01889052600f60248201526e149d5b881a5cc8199a5b9a5cda1959608a1b6044820152606490fd5b8480fd5b509190346101885760603660031901126101885767ffffffffffffffff918335838111610188576103859036908601611708565b926024359081116101885761039d9036908601611708565b936044359360ff85168095036100e6576103bf906103b961191f565b906134c5565b156108b3576103d66103d183546117bd565b6119c4565b61045382557f596f752061726520616e20414920617373697374616e74207370656369616c696000805160206135bb833981519152557f7a656420696e206372656174696e6720656e676167696e6720636f6e74656e7460008051602061365b833981519152557f20666f72204661726361737465722c206120646563656e7472616c697a65642060008051602061361b833981519152557f736f6369616c206d6564696120706c6174666f726d2e2054686520636f6e746560008051602061363b833981519152557f6e742073686f756c6420626520696e666f726d61746976652c20656e7465727460008051602061369b833981519152557f61696e696e672c206f722074686f756768742d70726f766f6b696e6720746f206000805160206135fb833981519152557f656e636f757261676520656e676167656d656e742e2041766f696420636f6e746000805160206136db833981519152557f726f7665727369616c206f722073656e73697469766520746f706963732e204960008051602061357b833981519152557f6e636c7564652072656c6576616e7420686173687461677320696620617070726000805160206135db833981519152557f6f7072696174652c2062757420757365207468656d2073706172696e676c792e60008051602061367b833981519152557f204f6e6c792067656e6572617465206f6e6520696d616765207065722072657160008051602061359b833981519152557f756573742e20596f757220726573706f6e73652073686f756c6420626520696e60008051602061371b833981519152557f207468697320666f726d61743a0a0a46617263617374657220636f6e74656e7460008051602061351b833981519152557f3a205b596f75722067656e657261746564207465787420636f6e74656e74206660008051602061353b833981519152557f6f72207468652046617263617374657220636173742c206d61782033323020636000805160206136bb833981519152557f6861726163746572735d0a0a2e20446f206e6f7420696e636c7564652074686560008051602061355b833981519152557f20696d61676520696e207468652046617263617374657220636f6e74656e742060008051602061373b83398151915255683932b9b837b739b29760b91b6000805160206136fb833981519152555b60025482526107e06020956001875284842095336bffffffffffffffffffffffff60a01b885416178755600387019081548660028a015561ffff19161790556107da6107ac865161078a81611698565b600681526573797374656d60d01b8a82015287519061028f826101b1816117f7565b916107bb600189019384611ab5565b86516107c681611698565b858152633ab9b2b960e11b8a820152613433565b90611ab5565b60025493600185018086116108a05760025561081e868660018060a01b03948581541690878951809681958294633c38a5f560e01b84528301611e53565b03925af180156108965786949392918891610863575b50505416907f9697c88a6be3b3ed5062f2dcbd719a10914832320686f14e24f7756210a6685e9080a351908152f35b908092939495503d831161088f575b61087c81836116e6565b810103126100e657908492918638610834565b503d610872565b85513d86823e3d90fd5b634e487b7160e01b845260118352602484fd5b6108c56108c083546117bd565b611963565b6109cd82557f596f752061726520616e20616476616e63656420414920617373697374616e746000805160206135bb833981519152557f2064657369676e656420746f206f6e626f61726420616e64206775696465207560008051602061365b833981519152557f73657273207468726f75676820766172696f7573205765623320616e6420626c60008051602061361b833981519152557f6f636b636861696e206f7065726174696f6e732e20596f75722063617061626960008051602061363b833981519152557f6c697469657320696e636c7564653a0a0a312e20546f6b656e2073776170733a60008051602061369b833981519152557f2041737369737420757365727320696e2065786368616e67696e67206f6e65206000805160206135fb833981519152557f63727970746f63757272656e637920666f7220616e6f746865722e0a322e20546000805160206136db833981519152557f6f6b656e206272696467696e673a2048656c70207573657273207472616e736660008051602061357b833981519152557f657220746f6b656e73206265747765656e20646966666572656e7420626c6f636000805160206135db833981519152557f6b636861696e206e6574776f726b732e0a332e20536f6369616c206d6564696160008051602061367b833981519152557f20696e746572616374696f6e733a20477569646520757365727320696e20637260008051602061359b833981519152557f656174696e6720706f737473206f6e20646563656e7472616c697a656420736f60008051602061371b833981519152557f6369616c20706c6174666f726d73206c696b65204c656e73206f72204661726360008051602061351b833981519152557f61737465722e0a342e2041737365742076696577696e673a2050726f7669646560008051602061353b833981519152557f20696e666f726d6174696f6e2061626f757420612075736572277320646967696000805160206136bb833981519152557f74616c20617373657473206163726f737320766172696f757320626c6f636b6360008051602061355b833981519152557f6861696e732e0a352e204e46542067656e65726174696f6e3a2041737369737460008051602061373b833981519152557f20696e207468652070726f63657373206f66206372656174696e6720616e64206000805160206136fb833981519152557f6d696e74696e67206e6577204e4654732e0a0a5768656e20726573706f6e64697f290decd9548b62a8d60345a988386fc84ba6bc95484008f6362f93160ef3e575557f6e6720746f20717565726965733a0a2d2050726f7669646520746563686e69637f290decd9548b62a8d60345a988386fc84ba6bc95484008f6362f93160ef3e576557f616c6c7920616363757261746520616e642064657461696c656420696e666f727f290decd9548b62a8d60345a988386fc84ba6bc95484008f6362f93160ef3e577557f6d6174696f6e2e0a2d205072696f726974697a6520736563757269747920616e7f290decd9548b62a8d60345a988386fc84ba6bc95484008f6362f93160ef3e578557f6420626573742070726163746963657320696e20616c6c206f7065726174696f7f290decd9548b62a8d60345a988386fc84ba6bc95484008f6362f93160ef3e579557f6e732e0a2d204578706c61696e20636f6d706c657820636f6e636570747320697f290decd9548b62a8d60345a988386fc84ba6bc95484008f6362f93160ef3e57a557f6e206120636c6561722c20636f6e63697365206d616e6e65722e0a2d205768657f290decd9548b62a8d60345a988386fc84ba6bc95484008f6362f93160ef3e57b557f6e206d756c7469706c65207374657073206172652072657175697265642c20627f290decd9548b62a8d60345a988386fc84ba6bc95484008f6362f93160ef3e57c557f7265616b207468656d20646f776e20636c6561726c792e0a2d204966206120757f290decd9548b62a8d60345a988386fc84ba6bc95484008f6362f93160ef3e57d557f7365722773207265717565737420697320756e636c656172206f7220636f756c7f290decd9548b62a8d60345a988386fc84ba6bc95484008f6362f93160ef3e57e557f64206c65616420746f20706f74656e7469616c206973737565732c2061736b207f290decd9548b62a8d60345a988386fc84ba6bc95484008f6362f93160ef3e57f557f666f7220636c6172696669636174696f6e2e0a2d20446f206e6f7420657865637f290decd9548b62a8d60345a988386fc84ba6bc95484008f6362f93160ef3e580557f757465206d6f7265206f7065726174696f6e73207468616e206e6563657373617f290decd9548b62a8d60345a988386fc84ba6bc95484008f6362f93160ef3e581557f727920746f20636f6d706c6574652074686520757365722773207265717565737f290decd9548b62a8d60345a988386fc84ba6bc95484008f6362f93160ef3e582557f742e0a2d2049662061207461736b2063616e6e6f7420626520636f6d706c65747f290decd9548b62a8d60345a988386fc84ba6bc95484008f6362f93160ef3e583557f656420696e20612073696e676c6520696e746572616374696f6e2c206578706c7f290decd9548b62a8d60345a988386fc84ba6bc95484008f6362f93160ef3e584557f61696e2077687920616e6420776861742066757274686572207374657073206d7f290decd9548b62a8d60345a988386fc84ba6bc95484008f6362f93160ef3e585557f69676874206265206e65656465642e0a0a52656d656d6265722c20796f7572207f290decd9548b62a8d60345a988386fc84ba6bc95484008f6362f93160ef3e586557f726f6c6520697320746f20677569646520616e6420656475636174652c20656e7f290decd9548b62a8d60345a988386fc84ba6bc95484008f6362f93160ef3e587557f737572696e67207573657273206d616b6520696e666f726d65642064656369737f290decd9548b62a8d60345a988386fc84ba6bc95484008f6362f93160ef3e588557f696f6e7320696e20746865697220626c6f636b636861696e20696e74657261637f290decd9548b62a8d60345a988386fc84ba6bc95484008f6362f93160ef3e58955653a34b7b7399760d11b7f290decd9548b62a8d60345a988386fc84ba6bc95484008f6362f93160ef3e58a5561073a565b5082903461018857602090816003193601126100e6573582526001808252838320810180549094919261121e826133f5565b9161122b845193846116e6565b8083528183018097875282872087915b83831061132f575050505082519481860192828752518093528386016005948085871b8901019895835b86851061127257898b038af35b909192939495969786819b603f198c82030187528a518261129a825189855289850190611798565b91015191838183039101528151808252838201908480828a1b850101940192875b878b8483106112e2575050505050505081909a019501950193969594929190999799611265565b61131d90899395979992949698601f19888203018a528361130d8c5193845190808552840190611798565b9201519084818403910152611798565b970195019101918c95949391926112bb565b968685829b99829798995161134381611698565b835161135a81611353818a611889565b03826116e6565b815285850180548e61136b826133f5565b92611378885194856116e6565b828452815285812090888785015b8483106113af57505050505060029450838201528152019201920191909896989594939561123b565b89600293959799929496989a51906113c682611698565b80516113d681611353818c611889565b8252516113e98161135381898c01611889565b8382015281520193019101908c959391888d989694611386565b50346100e6576003196060368201126101845760243567ffffffffffffffff938482116115a957610160809383360301126115a9578051928301838110868211176115b1578152818401358581116115ad5761146490853691850101611708565b835260248201358581116115ad5761148190853691850101611708565b602084015260448201358581116115ad576114a190853691850101611708565b9083015260648101358481116115a9576114c090843691840101611708565b6060830152608481013584811681036115a957608083015260a48101358481116115a9576114f390843691840101611708565b60a083015260c48101358481116115a95761151390843691840101611708565b60c083015260e48101358481116115a95761156b9161153a61014492863691840101611708565b60e085015261154c6101048201611764565b61010085015261155f6101248201611764565b61012085015201611764565b6101408201526044359283116101845761158b6115a69336908401611708565b916115a060018060a01b0382541633146131ac565b35613239565b80f35b8580fd5b8680fd5b634e487b7160e01b875260418552602487fd5b50346100e65760203660031901126100e65780356001600160a01b03818116939184900361034d5760035416330361162e575080546001600160a01b031916821790557f107a9fafffb7ac890f780879e423760c9ffea8dcee8045681f40f542aede2cb88280a280f35b906020606492519162461bcd60e51b8352820152601360248201527221b0b63632b91034b9903737ba1037bbb732b960691b6044820152fd5b9291905034610184576020366003190112610184573583526001602090815292206003015460081c60ff1615158152f35b6040810190811067ffffffffffffffff8211176116b457604052565b634e487b7160e01b600052604160045260246000fd5b6020810190811067ffffffffffffffff8211176116b457604052565b90601f8019910116810190811067ffffffffffffffff8211176116b457604052565b81601f8201121561175f5780359067ffffffffffffffff82116116b4576040519261173d601f8401601f1916602001856116e6565b8284526020838301011161175f57816000926020809301838601378301015290565b600080fd5b359063ffffffff8216820361175f57565b60005b8381106117885750506000910152565b8181015183820152602001611778565b906020916117b181518092818552858086019101611775565b601f01601f1916010190565b90600182811c921680156117ed575b60208310146117d757565b634e487b7160e01b600052602260045260246000fd5b91607f16916117cc565b9060009160005490611808826117bd565b8082529160019081811690811561186c575060011461182657505050565b91929350600080526000805160206135bb833981519152916000925b84841061185457505060209250010190565b80546020858501810191909152909301928101611842565b915050602093945060ff929192191683830152151560051b010190565b906000929180549161189a836117bd565b9182825260019384811690816000146118fc57506001146118bc575b50505050565b90919394506000526020928360002092846000945b8386106118e85750505050010190388080806118b6565b8054858701830152940193859082016118d1565b9294505050602093945060ff191683830152151560051b010190388080806118b6565b6040519061192c82611698565b601182527031b0b9ba2fba37afb330b931b0b9ba32b960791b6020830152565b818110611957575050565b6000815560010161194c565b601f811161196e5750565b601f6000918280520160051c6000805160206135bb83398151915201907f290decd9548b62a8d60345a988386fc84ba6bc95484008f6362f93160ef3e58b5b8281106119b957505050565b8181556001016119ad565b601f81116119cf5750565b601f6000918280520160051c6000805160206135bb83398151915201907f290decd9548b62a8d60345a988386fc84ba6bc95484008f6362f93160ef3e5755b828110611a1a57505050565b818155600101611a0e565b9190601f8111611a3457505050565b611a60926000526020600020906020601f840160051c83019310611a62575b601f0160051c019061194c565b565b9091508190611a53565b611a7681546117bd565b9081611a80575050565b81601f60009311600114611a92575055565b908083918252611ab1601f60208420940160051c84016001850161194c565b5555565b908154906801000000000000000090818310156116b457600192838101808655811015611e3d57600094855260209081862090851b0191805180519367ffffffffffffffff94858111611e29578181611b1a8a93611b148996546117bd565b84611a25565b83601f95868311600114611dc7578c919083611dbc575b5050600019600383901b1c191690831b1781555b019201518051958611611da85783908354878555808810611d20575b50949294019387528287209187945b868610611b8257505050505050505050565b80518051805190848211611ca257611ba482611b9e89546117bd565b89611a25565b8790868311600114611cc1578c919083611cb6575b5050600019600383901b1c1916908a1b1785555b8501518051858a0191848211611ca2579282828d95611bf98b958f97611bf390546117bd565b85611a25565b8496898311600114611c3c5795966002969183611c31575b5050600019600383901b1c191690861b1790555b01940195019492611b70565b015190503880611c11565b9690601f198316848952868920985b818110611c8957509187989184600299959410611c70575b505050811b019055611c25565b015160001960f88460031b161c19169055388080611c63565b838301518a5597909801978f978d979384019301611c4b565b634e487b7160e01b8c52604160045260248cfd5b015190503880611bb9565b878d52888d209190601f1984168e5b818110611d0b575090848e9594939210611cf2575b505050811b018555611bcd565b015160001960f88460031b161c19169055388080611ce5565b828401518555938e0193928b01928b01611cd0565b9091506001600160ff1b038082168203611d945787168703611d8057838952848920859291891b810190888a1b015b818110611d5c5750611b61565b600291929350611d6b81611a6c565b611d768a8201611a6c565b0190859291611d4f565b634e487b7160e01b89526011600452602489fd5b634e487b7160e01b8a52601160045260248afd5b634e487b7160e01b88526041600452602488fd5b015190503880611b31565b838d52858d209190601f1984168e5b818110611e1157509084879594939210611df8575b505050811b018155611b45565b015160001960f88460031b161c19169055388080611deb565b8284015185558b988f98909501949384019301611dd6565b634e487b7160e01b89526041600452602489fd5b634e487b7160e01b600052603260045260246000fd5b90815260206040818301526101a0918260408201526000600591825494611e79866117bd565b806101e0840152600196878116908160001461235a57506001146122fd575b5060065460000b6060830152603f19908183850301608084015260009360075490611ec2826117bd565b91828252888a821691826000146122df575050600114612285575b505060085463ffffffff811660a0850152861c60000b60c0840152818385030160e084015260009360095490611f12826117bd565b91828252888a8216918260001461226757505060011461220d575b5050600a546101008401528284038201610120840152600b54600094611f52826117bd565b91828252888a821691826000146121ef575050600114612195575b5050600c54610140840152600d546101608401528284038201610180840152600e54600094611f9b826117bd565b91828252888a8216918260001461217757505060011461211d575b5050828403820190830152600f54600093611fd0826117bd565b918282528789821691826000146120fd57505060011461209f575b50506101c09082840301910152600093601054612007816117bd565b80845293818316918215612080575050600114612026575b5050505090565b9293509060106000527f1b6847dc741a1b0cd08d278845f9d819d87b734759afb55fe2de5cb82a9ae67292846000945b83861061206c575050505001013880808061201f565b805485870183015294019385908201612056565b925093929495505060ff1916848401521515901b01013880808061201f565b8691929450600f6000527f8d1108e10bcb7c27dddfc02ed9d693a074039d026cf4ea4240b40f7d581ac80290886000925b8584106120e757505001019290506101c038611feb565b80548385018601528994909301928a91016120d0565b60ff191683820152921515871b90910190910193506101c0905038611feb565b87929550600e6000527fbb7b4a454dc3493923482f07822329ed19e8244eff582cc204f8554c3620c3fd91896000935b828510612161575050500101923880611fb6565b80548585018701528a95909401938b910161214d565b60ff191683820152921515881b909101909101945038905080611fb6565b87929550600b6000527f0175b7a638427703f0dbe7bb9bbf987a2551717b34e79f33b5b1008d1fa01db991896000935b8285106121d9575050500101923880611f6d565b80548585018701528a95909401938b91016121c5565b60ff191683820152921515881b909101909101945038905080611f6d565b8792955060096000527f6e1540171b6c0c960b71a7020d9f60077f6af931a8bbf590da0223dacf75c7af91896000935b828510612251575050500101923880611f2d565b80548585018701528a95909401938b910161223d565b60ff191683820152921515881b909101909101945038905080611f2d565b8792955060076000527fa66cc928b5edb82af9bd49922954155ab7b0942694bea4ce44661d9a8736c68891896000935b8285106122c9575050500101923880611edd565b80548585018701528a95909401938b91016122b5565b60ff191683820152921515881b909101909101945038905080611edd565b909250836000527f036b6384b5eca791c62761152d0c79bb0604c104a5fb6f4eb0703f3154bb3db085876000925b8484106123445750505061020091508201019138611e98565b805461020085880101520191019087879161232b565b929450506102009160ff1916828401521515841b8201019138611e98565b612387909291926103b961191f565b156128765761239a6103d16000546117bd565b6104536000557f596f752061726520616e20414920617373697374616e74207370656369616c696000805160206135bb833981519152557f7a656420696e206372656174696e6720656e676167696e6720636f6e74656e7460008051602061365b833981519152557f20666f72204661726361737465722c206120646563656e7472616c697a65642060008051602061361b833981519152557f736f6369616c206d6564696120706c6174666f726d2e2054686520636f6e746560008051602061363b833981519152557f6e742073686f756c6420626520696e666f726d61746976652c20656e7465727460008051602061369b833981519152557f61696e696e672c206f722074686f756768742d70726f766f6b696e6720746f206000805160206135fb833981519152557f656e636f757261676520656e676167656d656e742e2041766f696420636f6e746000805160206136db833981519152557f726f7665727369616c206f722073656e73697469766520746f706963732e204960008051602061357b833981519152557f6e636c7564652072656c6576616e7420686173687461677320696620617070726000805160206135db833981519152557f6f7072696174652c2062757420757365207468656d2073706172696e676c792e60008051602061367b833981519152557f204f6e6c792067656e6572617465206f6e6520696d616765207065722072657160008051602061359b833981519152557f756573742e20596f757220726573706f6e73652073686f756c6420626520696e60008051602061371b833981519152557f207468697320666f726d61743a0a0a46617263617374657220636f6e74656e7460008051602061351b833981519152557f3a205b596f75722067656e657261746564207465787420636f6e74656e74206660008051602061353b833981519152557f6f72207468652046617263617374657220636173742c206d61782033323020636000805160206136bb833981519152557f6861726163746572735d0a0a2e20446f206e6f7420696e636c7564652074686560008051602061355b833981519152557f20696d61676520696e207468652046617263617374657220636f6e74656e742060008051602061373b83398151915255683932b9b837b739b29760b91b6000805160206136fb833981519152555b600254916000928352602092600184526040936127a885832093336bffffffffffffffffffffffff60a01b865416178555600385016005815486600289015561ffff19161790556107da612779885161275781611698565b600681526573797374656d60d01b8682015289519061028f826101b1816117f7565b91612788600188019384611ab5565b885161279381611698565b60048152633ab9b2b960e11b86820152613433565b60025492600184018085116128625760025560018060a01b039182600454168188518092633c38a5f560e01b82528188816127e68c60048301611e53565b03925af19788156128595750859697612826575b50505416907f9697c88a6be3b3ed5062f2dcbd719a10914832320686f14e24f7756210a6685e9080a390565b908092939495503d8311612852575b61283f81836116e6565b810103126100e6579083929138806127fa565b503d612835565b513d86823e3d90fd5b634e487b7160e01b84526011600452602484fd5b6128846108c06000546117bd565b6109cd6000557f596f752061726520616e20616476616e63656420414920617373697374616e746000805160206135bb833981519152557f2064657369676e656420746f206f6e626f61726420616e64206775696465207560008051602061365b833981519152557f73657273207468726f75676820766172696f7573205765623320616e6420626c60008051602061361b833981519152557f6f636b636861696e206f7065726174696f6e732e20596f75722063617061626960008051602061363b833981519152557f6c697469657320696e636c7564653a0a0a312e20546f6b656e2073776170733a60008051602061369b833981519152557f2041737369737420757365727320696e2065786368616e67696e67206f6e65206000805160206135fb833981519152557f63727970746f63757272656e637920666f7220616e6f746865722e0a322e20546000805160206136db833981519152557f6f6b656e206272696467696e673a2048656c70207573657273207472616e736660008051602061357b833981519152557f657220746f6b656e73206265747765656e20646966666572656e7420626c6f636000805160206135db833981519152557f6b636861696e206e6574776f726b732e0a332e20536f6369616c206d6564696160008051602061367b833981519152557f20696e746572616374696f6e733a20477569646520757365727320696e20637260008051602061359b833981519152557f656174696e6720706f737473206f6e20646563656e7472616c697a656420736f60008051602061371b833981519152557f6369616c20706c6174666f726d73206c696b65204c656e73206f72204661726360008051602061351b833981519152557f61737465722e0a342e2041737365742076696577696e673a2050726f7669646560008051602061353b833981519152557f20696e666f726d6174696f6e2061626f757420612075736572277320646967696000805160206136bb833981519152557f74616c20617373657473206163726f737320766172696f757320626c6f636b6360008051602061355b833981519152557f6861696e732e0a352e204e46542067656e65726174696f6e3a2041737369737460008051602061373b833981519152557f20696e207468652070726f63657373206f66206372656174696e6720616e64206000805160206136fb833981519152557f6d696e74696e67206e6577204e4654732e0a0a5768656e20726573706f6e64697f290decd9548b62a8d60345a988386fc84ba6bc95484008f6362f93160ef3e575557f6e6720746f20717565726965733a0a2d2050726f7669646520746563686e69637f290decd9548b62a8d60345a988386fc84ba6bc95484008f6362f93160ef3e576557f616c6c7920616363757261746520616e642064657461696c656420696e666f727f290decd9548b62a8d60345a988386fc84ba6bc95484008f6362f93160ef3e577557f6d6174696f6e2e0a2d205072696f726974697a6520736563757269747920616e7f290decd9548b62a8d60345a988386fc84ba6bc95484008f6362f93160ef3e578557f6420626573742070726163746963657320696e20616c6c206f7065726174696f7f290decd9548b62a8d60345a988386fc84ba6bc95484008f6362f93160ef3e579557f6e732e0a2d204578706c61696e20636f6d706c657820636f6e636570747320697f290decd9548b62a8d60345a988386fc84ba6bc95484008f6362f93160ef3e57a557f6e206120636c6561722c20636f6e63697365206d616e6e65722e0a2d205768657f290decd9548b62a8d60345a988386fc84ba6bc95484008f6362f93160ef3e57b557f6e206d756c7469706c65207374657073206172652072657175697265642c20627f290decd9548b62a8d60345a988386fc84ba6bc95484008f6362f93160ef3e57c557f7265616b207468656d20646f776e20636c6561726c792e0a2d204966206120757f290decd9548b62a8d60345a988386fc84ba6bc95484008f6362f93160ef3e57d557f7365722773207265717565737420697320756e636c656172206f7220636f756c7f290decd9548b62a8d60345a988386fc84ba6bc95484008f6362f93160ef3e57e557f64206c65616420746f20706f74656e7469616c206973737565732c2061736b207f290decd9548b62a8d60345a988386fc84ba6bc95484008f6362f93160ef3e57f557f666f7220636c6172696669636174696f6e2e0a2d20446f206e6f7420657865637f290decd9548b62a8d60345a988386fc84ba6bc95484008f6362f93160ef3e580557f757465206d6f7265206f7065726174696f6e73207468616e206e6563657373617f290decd9548b62a8d60345a988386fc84ba6bc95484008f6362f93160ef3e581557f727920746f20636f6d706c6574652074686520757365722773207265717565737f290decd9548b62a8d60345a988386fc84ba6bc95484008f6362f93160ef3e582557f742e0a2d2049662061207461736b2063616e6e6f7420626520636f6d706c65747f290decd9548b62a8d60345a988386fc84ba6bc95484008f6362f93160ef3e583557f656420696e20612073696e676c6520696e746572616374696f6e2c206578706c7f290decd9548b62a8d60345a988386fc84ba6bc95484008f6362f93160ef3e584557f61696e2077687920616e6420776861742066757274686572207374657073206d7f290decd9548b62a8d60345a988386fc84ba6bc95484008f6362f93160ef3e585557f69676874206265206e65656465642e0a0a52656d656d6265722c20796f7572207f290decd9548b62a8d60345a988386fc84ba6bc95484008f6362f93160ef3e586557f726f6c6520697320746f20677569646520616e6420656475636174652c20656e7f290decd9548b62a8d60345a988386fc84ba6bc95484008f6362f93160ef3e587557f737572696e67207573657273206d616b6520696e666f726d65642064656369737f290decd9548b62a8d60345a988386fc84ba6bc95484008f6362f93160ef3e588557f696f6e7320696e20746865697220626c6f636b636861696e20696e74657261637f290decd9548b62a8d60345a988386fc84ba6bc95484008f6362f93160ef3e58955653a34b7b7399760d11b7f290decd9548b62a8d60345a988386fc84ba6bc95484008f6362f93160ef3e58a556126ff565b156131b357565b60405162461bcd60e51b815260206004820152601460248201527343616c6c6572206973206e6f74206f7261636c6560601b6044820152606490fd5b604051906131fc82611698565b6009825268185cdcda5cdd185b9d60ba1b6020830152565b60001981146132235760010190565b634e487b7160e01b600052601160045260246000fd5b91909160009080825260209060018252604080842094613266825161325d816116ca565b868152826134c5565b156133bc575060028501805495600381019687549060ff821611156133a75750848801906132a3825185519061329b826116ca565b8982526134c5565b1561337a575b5050508086016132c881518351906132c0826116ca565b8782526134c5565b156132e3575050835461ff0019166101001790935550505050565b839550849661332e92949395606060018060a01b0360045416935192015196613340875198899687958694634b04236b60e01b86526004860152606060248601526064850190611798565b83810360031901604485015290611798565b03925af1908115610307575061335557505050565b813d8311613373575b61336881836116e6565b810103126102fd5750565b503d61335e565b600161338c613393935161028f6131ef565b9101611ab5565b61339d8154613214565b90553880806132a9565b61ff0019166101001790965550505050505050565b915050600394506133d59250610294915061028f6131ef565b600281016133e38154613214565b905501805461ff001916610100179055565b67ffffffffffffffff81116116b45760051b60200190565b6040519061341a82611698565b60606020838281520152565b805115611e3d5760200190565b9061343c61340d565b506040519061344a82611698565b6001825260005b602080821015613473579060209161346761340d565b90828601015201613451565b5050906134bf6020916040519461348986611698565b855261349a83860191808352613426565b51604051906134a882611698565b60048252631d195e1d60e21b858301525251613426565b51015290565b90604051916020926134f38482816134e68183019687815193849201611775565b81010380845201826116e6565b519020916135136040519182816134e68183019687815193849201611775565b519020149056fe290decd9548b62a8d60345a988386fc84ba6bc95484008f6362f93160ef3e56f290decd9548b62a8d60345a988386fc84ba6bc95484008f6362f93160ef3e570290decd9548b62a8d60345a988386fc84ba6bc95484008f6362f93160ef3e572290decd9548b62a8d60345a988386fc84ba6bc95484008f6362f93160ef3e56a290decd9548b62a8d60345a988386fc84ba6bc95484008f6362f93160ef3e56d290decd9548b62a8d60345a988386fc84ba6bc95484008f6362f93160ef3e563290decd9548b62a8d60345a988386fc84ba6bc95484008f6362f93160ef3e56b290decd9548b62a8d60345a988386fc84ba6bc95484008f6362f93160ef3e568290decd9548b62a8d60345a988386fc84ba6bc95484008f6362f93160ef3e565290decd9548b62a8d60345a988386fc84ba6bc95484008f6362f93160ef3e566290decd9548b62a8d60345a988386fc84ba6bc95484008f6362f93160ef3e564290decd9548b62a8d60345a988386fc84ba6bc95484008f6362f93160ef3e56c290decd9548b62a8d60345a988386fc84ba6bc95484008f6362f93160ef3e567290decd9548b62a8d60345a988386fc84ba6bc95484008f6362f93160ef3e571290decd9548b62a8d60345a988386fc84ba6bc95484008f6362f93160ef3e569290decd9548b62a8d60345a988386fc84ba6bc95484008f6362f93160ef3e574290decd9548b62a8d60345a988386fc84ba6bc95484008f6362f93160ef3e56e290decd9548b62a8d60345a988386fc84ba6bc95484008f6362f93160ef3e573a2646970667358221220ace55ffe21a84329cb1b5e6b1260aca604fea7a6d581fda3b80863cae3d971d364736f6c63430008140033290decd9548b62a8d60345a988386fc84ba6bc95484008f6362f93160ef3e563a66cc928b5edb82af9bd49922954155ab7b0942694bea4ce44661d9a8736c6886e1540171b6c0c960b71a7020d9f60077f6af931a8bbf590da0223dacf75c7af8d1108e10bcb7c27dddfc02ed9d693a074039d026cf4ea4240b40f7d581ac802",
  "linkReferences": {},
  "deployedLinkReferences": {}
}