{
  "_format": "hh-sol-artifact-1",
  "contractName": "DalleNft",
  "sourceName": "contracts/DalleNft.sol",
  "abi": [
    {
      "inputs": [
        {
          "internalType": "address",
          "name": "initialOracleAddress",
          "type": "address"
        },
        {
          "internalType": "string",
          "name": "initialPrompt",
          "type": "string"
        }
      ],
      "stateMutability": "nonpayable",
      "type": "constructor"
    },
    {
      "inputs": [],
      "name": "ERC721EnumerableForbiddenBatchMint",
      "type": "error"
    },
    {
      "inputs": [
        {
          "internalType": "address",
          "name": "sender",
          "type": "address"
        },
        {
          "internalType": "uint256",
          "name": "tokenId",
          "type": "uint256"
        },
        {
          "internalType": "address",
          "name": "owner",
          "type": "address"
        }
      ],
      "name": "ERC721IncorrectOwner",
      "type": "error"
    },
    {
      "inputs": [
        {
          "internalType": "address",
          "name": "operator",
          "type": "address"
        },
        {
          "internalType": "uint256",
          "name": "tokenId",
          "type": "uint256"
        }
      ],
      "name": "ERC721InsufficientApproval",
      "type": "error"
    },
    {
      "inputs": [
        {
          "internalType": "address",
          "name": "approver",
          "type": "address"
        }
      ],
      "name": "ERC721InvalidApprover",
      "type": "error"
    },
    {
      "inputs": [
        {
          "internalType": "address",
          "name": "operator",
          "type": "address"
        }
      ],
      "name": "ERC721InvalidOperator",
      "type": "error"
    },
    {
      "inputs": [
        {
          "internalType": "address",
          "name": "owner",
          "type": "address"
        }
      ],
      "name": "ERC721InvalidOwner",
      "type": "error"
    },
    {
      "inputs": [
        {
          "internalType": "address",
          "name": "receiver",
          "type": "address"
        }
      ],
      "name": "ERC721InvalidReceiver",
      "type": "error"
    },
    {
      "inputs": [
        {
          "internalType": "address",
          "name": "sender",
          "type": "address"
        }
      ],
      "name": "ERC721InvalidSender",
      "type": "error"
    },
    {
      "inputs": [
        {
          "internalType": "uint256",
          "name": "tokenId",
          "type": "uint256"
        }
      ],
      "name": "ERC721NonexistentToken",
      "type": "error"
    },
    {
      "inputs": [
        {
          "internalType": "address",
          "name": "owner",
          "type": "address"
        },
        {
          "internalType": "uint256",
          "name": "index",
          "type": "uint256"
        }
      ],
      "name": "ERC721OutOfBoundsIndex",
      "type": "error"
    },
    {
      "anonymous": false,
      "inputs": [
        {
          "indexed": true,
          "internalType": "address",
          "name": "owner",
          "type": "address"
        },
        {
          "indexed": true,
          "internalType": "address",
          "name": "approved",
          "type": "address"
        },
        {
          "indexed": true,
          "internalType": "uint256",
          "name": "tokenId",
          "type": "uint256"
        }
      ],
      "name": "Approval",
      "type": "event"
    },
    {
      "anonymous": false,
      "inputs": [
        {
          "indexed": true,
          "internalType": "address",
          "name": "owner",
          "type": "address"
        },
        {
          "indexed": true,
          "internalType": "address",
          "name": "operator",
          "type": "address"
        },
        {
          "indexed": false,
          "internalType": "bool",
          "name": "approved",
          "type": "bool"
        }
      ],
      "name": "ApprovalForAll",
      "type": "event"
    },
    {
      "anonymous": false,
      "inputs": [
        {
          "indexed": false,
          "internalType": "uint256",
          "name": "_fromTokenId",
          "type": "uint256"
        },
        {
          "indexed": false,
          "internalType": "uint256",
          "name": "_toTokenId",
          "type": "uint256"
        }
      ],
      "name": "BatchMetadataUpdate",
      "type": "event"
    },
    {
      "anonymous": false,
      "inputs": [
        {
          "indexed": false,
          "internalType": "uint256",
          "name": "_tokenId",
          "type": "uint256"
        }
      ],
      "name": "MetadataUpdate",
      "type": "event"
    },
    {
      "anonymous": false,
      "inputs": [
        {
          "indexed": true,
          "internalType": "address",
          "name": "owner",
          "type": "address"
        },
        {
          "indexed": true,
          "internalType": "uint256",
          "name": "chatId",
          "type": "uint256"
        }
      ],
      "name": "MintInputCreated",
      "type": "event"
    },
    {
      "anonymous": false,
      "inputs": [
        {
          "indexed": true,
          "internalType": "address",
          "name": "newOracleAddress",
          "type": "address"
        }
      ],
      "name": "OracleAddressUpdated",
      "type": "event"
    },
    {
      "anonymous": false,
      "inputs": [
        {
          "indexed": false,
          "internalType": "uint256",
          "name": "chatId",
          "type": "uint256"
        },
        {
          "indexed": false,
          "internalType": "string",
          "name": "imageUrl",
          "type": "string"
        }
      ],
      "name": "OracleResponseReceived",
      "type": "event"
    },
    {
      "anonymous": false,
      "inputs": [
        {
          "indexed": true,
          "internalType": "string",
          "name": "newPrompt",
          "type": "string"
        }
      ],
      "name": "PromptUpdated",
      "type": "event"
    },
    {
      "anonymous": false,
      "inputs": [
        {
          "indexed": true,
          "internalType": "address",
          "name": "from",
          "type": "address"
        },
        {
          "indexed": true,
          "internalType": "address",
          "name": "to",
          "type": "address"
        },
        {
          "indexed": true,
          "internalType": "uint256",
          "name": "tokenId",
          "type": "uint256"
        }
      ],
      "name": "Transfer",
      "type": "event"
    },
    {
      "inputs": [
        {
          "internalType": "address",
          "name": "to",
          "type": "address"
        },
        {
          "internalType": "uint256",
          "name": "tokenId",
          "type": "uint256"
        }
      ],
      "name": "approve",
      "outputs": [],
      "stateMutability": "nonpayable",
      "type": "function"
    },
    {
      "inputs": [
        {
          "internalType": "address",
          "name": "owner",
          "type": "address"
        }
      ],
      "name": "balanceOf",
      "outputs": [
        {
          "internalType": "uint256",
          "name": "",
          "type": "uint256"
        }
      ],
      "stateMutability": "view",
      "type": "function"
    },
    {
      "inputs": [
        {
          "internalType": "uint256",
          "name": "tokenId",
          "type": "uint256"
        }
      ],
      "name": "getApproved",
      "outputs": [
        {
          "internalType": "address",
          "name": "",
          "type": "address"
        }
      ],
      "stateMutability": "view",
      "type": "function"
    },
    {
      "inputs": [
        {
          "internalType": "uint256",
          "name": "chatId",
          "type": "uint256"
        }
      ],
      "name": "getMessageHistoryContents",
      "outputs": [
        {
          "internalType": "string[]",
          "name": "",
          "type": "string[]"
        }
      ],
      "stateMutability": "view",
      "type": "function"
    },
    {
      "inputs": [
        {
          "internalType": "address",
          "name": "",
          "type": "address"
        },
        {
          "internalType": "uint256",
          "name": "",
          "type": "uint256"
        }
      ],
      "name": "getRoles",
      "outputs": [
        {
          "internalType": "string[]",
          "name": "",
          "type": "string[]"
        }
      ],
      "stateMutability": "pure",
      "type": "function"
    },
    {
      "inputs": [
        {
          "internalType": "string",
          "name": "message",
          "type": "string"
        },
        {
          "internalType": "string",
          "name": "name",
          "type": "string"
        },
        {
          "internalType": "string",
          "name": "description",
          "type": "string"
        },
        {
          "internalType": "string",
          "name": "externalUrl",
          "type": "string"
        },
        {
          "internalType": "string[]",
          "name": "attributes",
          "type": "string[]"
        }
      ],
      "name": "initializeMint",
      "outputs": [
        {
          "internalType": "uint256",
          "name": "",
          "type": "uint256"
        }
      ],
      "stateMutability": "nonpayable",
      "type": "function"
    },
    {
      "inputs": [
        {
          "internalType": "address",
          "name": "owner",
          "type": "address"
        },
        {
          "internalType": "address",
          "name": "operator",
          "type": "address"
        }
      ],
      "name": "isApprovedForAll",
      "outputs": [
        {
          "internalType": "bool",
          "name": "",
          "type": "bool"
        }
      ],
      "stateMutability": "view",
      "type": "function"
    },
    {
      "inputs": [
        {
          "internalType": "uint256",
          "name": "",
          "type": "uint256"
        }
      ],
      "name": "mintInputs",
      "outputs": [
        {
          "internalType": "address",
          "name": "owner",
          "type": "address"
        },
        {
          "internalType": "string",
          "name": "prompt",
          "type": "string"
        },
        {
          "internalType": "string",
          "name": "name",
          "type": "string"
        },
        {
          "internalType": "string",
          "name": "description",
          "type": "string"
        },
        {
          "internalType": "string",
          "name": "externalUrl",
          "type": "string"
        },
        {
          "internalType": "bool",
          "name": "isMinted",
          "type": "bool"
        }
      ],
      "stateMutability": "view",
      "type": "function"
    },
    {
      "inputs": [],
      "name": "name",
      "outputs": [
        {
          "internalType": "string",
          "name": "",
          "type": "string"
        }
      ],
      "stateMutability": "view",
      "type": "function"
    },
    {
      "inputs": [
        {
          "internalType": "uint256",
          "name": "runId",
          "type": "uint256"
        },
        {
          "internalType": "string",
          "name": "response",
          "type": "string"
        },
        {
          "internalType": "string",
          "name": "",
          "type": "string"
        }
      ],
      "name": "onOracleFunctionResponse",
      "outputs": [],
      "stateMutability": "nonpayable",
      "type": "function"
    },
    {
      "inputs": [],
      "name": "oracleAddress",
      "outputs": [
        {
          "internalType": "address",
          "name": "",
          "type": "address"
        }
      ],
      "stateMutability": "view",
      "type": "function"
    },
    {
      "inputs": [
        {
          "internalType": "uint256",
          "name": "tokenId",
          "type": "uint256"
        }
      ],
      "name": "ownerOf",
      "outputs": [
        {
          "internalType": "address",
          "name": "",
          "type": "address"
        }
      ],
      "stateMutability": "view",
      "type": "function"
    },
    {
      "inputs": [],
      "name": "prompt",
      "outputs": [
        {
          "internalType": "string",
          "name": "",
          "type": "string"
        }
      ],
      "stateMutability": "view",
      "type": "function"
    },
    {
      "inputs": [
        {
          "internalType": "address",
          "name": "from",
          "type": "address"
        },
        {
          "internalType": "address",
          "name": "to",
          "type": "address"
        },
        {
          "internalType": "uint256",
          "name": "tokenId",
          "type": "uint256"
        }
      ],
      "name": "safeTransferFrom",
      "outputs": [],
      "stateMutability": "nonpayable",
      "type": "function"
    },
    {
      "inputs": [
        {
          "internalType": "address",
          "name": "from",
          "type": "address"
        },
        {
          "internalType": "address",
          "name": "to",
          "type": "address"
        },
        {
          "internalType": "uint256",
          "name": "tokenId",
          "type": "uint256"
        },
        {
          "internalType": "bytes",
          "name": "data",
          "type": "bytes"
        }
      ],
      "name": "safeTransferFrom",
      "outputs": [],
      "stateMutability": "nonpayable",
      "type": "function"
    },
    {
      "inputs": [
        {
          "internalType": "address",
          "name": "operator",
          "type": "address"
        },
        {
          "internalType": "bool",
          "name": "approved",
          "type": "bool"
        }
      ],
      "name": "setApprovalForAll",
      "outputs": [],
      "stateMutability": "nonpayable",
      "type": "function"
    },
    {
      "inputs": [
        {
          "internalType": "address",
          "name": "newOracleAddress",
          "type": "address"
        }
      ],
      "name": "setOracleAddress",
      "outputs": [],
      "stateMutability": "nonpayable",
      "type": "function"
    },
    {
      "inputs": [
        {
          "internalType": "string",
          "name": "newPrompt",
          "type": "string"
        }
      ],
      "name": "setPrompt",
      "outputs": [],
      "stateMutability": "nonpayable",
      "type": "function"
    },
    {
      "inputs": [
        {
          "internalType": "bytes4",
          "name": "interfaceId",
          "type": "bytes4"
        }
      ],
      "name": "supportsInterface",
      "outputs": [
        {
          "internalType": "bool",
          "name": "",
          "type": "bool"
        }
      ],
      "stateMutability": "view",
      "type": "function"
    },
    {
      "inputs": [],
      "name": "symbol",
      "outputs": [
        {
          "internalType": "string",
          "name": "",
          "type": "string"
        }
      ],
      "stateMutability": "view",
      "type": "function"
    },
    {
      "inputs": [
        {
          "internalType": "uint256",
          "name": "index",
          "type": "uint256"
        }
      ],
      "name": "tokenByIndex",
      "outputs": [
        {
          "internalType": "uint256",
          "name": "",
          "type": "uint256"
        }
      ],
      "stateMutability": "view",
      "type": "function"
    },
    {
      "inputs": [
        {
          "internalType": "address",
          "name": "owner",
          "type": "address"
        },
        {
          "internalType": "uint256",
          "name": "index",
          "type": "uint256"
        }
      ],
      "name": "tokenOfOwnerByIndex",
      "outputs": [
        {
          "internalType": "uint256",
          "name": "",
          "type": "uint256"
        }
      ],
      "stateMutability": "view",
      "type": "function"
    },
    {
      "inputs": [
        {
          "internalType": "uint256",
          "name": "tokenId",
          "type": "uint256"
        }
      ],
      "name": "tokenURI",
      "outputs": [
        {
          "internalType": "string",
          "name": "",
          "type": "string"
        }
      ],
      "stateMutability": "view",
      "type": "function"
    },
    {
      "inputs": [],
      "name": "totalSupply",
      "outputs": [
        {
          "internalType": "uint256",
          "name": "",
          "type": "uint256"
        }
      ],
      "stateMutability": "view",
      "type": "function"
    },
    {
      "inputs": [
        {
          "internalType": "address",
          "name": "from",
          "type": "address"
        },
        {
          "internalType": "address",
          "name": "to",
          "type": "address"
        },
        {
          "internalType": "uint256",
          "name": "tokenId",
          "type": "uint256"
        }
      ],
      "name": "transferFrom",
      "outputs": [],
      "stateMutability": "nonpayable",
      "type": "function"
    }
  ],
  "bytecode": "0x608060405234620004d55762002eb3803803806200001d81620004fa565b928339810190604081830312620004d55780516001600160a01b03811690819003620004d5576020828101516001600160401b0393848211620004d5570193601f90808287011215620004d55785518581116200030957601f19966200008982850189168601620004fa565b92828452858383010111620004d557849060005b838110620004c057505060009183010152620000b8620004da565b92600684526544414c4c2d4560d01b81850152620000d5620004da565b9460039586815262444c4560e81b83820152855188811162000309576000546001978882811c92168015620004b5575b86831014620002e85781888493116200045f575b508590888311600114620003fb57600092620003ef575b5050600019828a1b1c191690871b176000555b80519088821162000309578654908782811c92168015620003e4575b85831014620002e85781878493116200038e575b5084908783116001146200032b576000926200031f575b505060001982891b1c191690861b1785555b60018060a01b03193381600d541617600d55600e541617600e5581519586116200030957600f548481811c91168015620002fe575b82821014620002e8578381116200029c575b50809286116001146200022e57508495509084929160009562000222575b50501b92600019911b1c191617600f555b6040516129929081620005218239f35b01519350388062000201565b93929585908116600f60005285600020956000905b8983831062000281575050501062000266575b50505050811b01600f5562000212565b01519060f884600019921b161c191690553880808062000256565b85870151895590970196948501948893509081019062000243565b600f600052816000208480890160051c820192848a10620002de575b0160051c019085905b828110620002d1575050620001e3565b60008155018590620002c1565b92508192620002b8565b634e487b7160e01b600052602260045260246000fd5b90607f1690620001d1565b634e487b7160e01b600052604160045260246000fd5b0151905038806200018a565b908b8994169184600052866000209260005b888282106200037757505084116200035e575b505050811b0185556200019c565b0151600019838b1b60f8161c1916905538808062000350565b8385015186558c979095019493840193016200033d565b90915087600052846000208780850160051c820192878610620003da575b918a91869594930160051c01915b828110620003ca57505062000173565b600081558594508a9101620003ba565b92508192620003ac565b91607f16916200015f565b01519050388062000130565b908c8a94169160008052876000209260005b898282106200044857505084116200042f575b505050811b0160005562000143565b0151600019838c1b60f8161c1916905538808062000420565b8385015186558d979095019493840193016200040d565b90915060008052856000208880850160051c820192888610620004ab575b918b91869594930160051c01915b8281106200049b57505062000119565b600081558594508b91016200048b565b925081926200047d565b91607f169162000105565b8181018301518582018401528692016200009d565b600080fd5b60408051919082016001600160401b038111838210176200030957604052565b6040519190601f01601f191682016001600160401b03811183821017620003095760405256fe608080604052600436101561001357600080fd5b60003560e01c90816301ffc9a714611e2d5750806306fdde0314611d8a578063081812fc14611d4c578063095ea7b314611c6557806318160ddd14611c4757806323b872dd14611c305780632f745c5914611bac57806342842e0e14611b7e5780634c69c00f14611b0f5780634e3b128114611a4c5780634f6ccce7146119f65780636352211e146119c657806370a082311461199b5780637397454d1461101b5780637c65d71114610f8757806395d89b4114610ea8578063a22cb46514610e03578063a89ae4ba14610dda578063b4ac024f14610c4c578063b88d4fde14610be0578063c87b56dd14610b87578063d3c7f18714610b3c578063e985e9c514610ae6578063eb17429a146109cd5763fbc505e01461013257600080fd5b3461051f5760a036600319011261051f576004356001600160401b03811161051f576101629036906004016121a8565b6024356001600160401b03811161051f576101819036906004016121a8565b906044356001600160401b03811161051f576101a19036906004016121a8565b916064356001600160401b03811161051f576101c19036906004016121a8565b6001600160401b036084351161051f5736602360843501121561051f5760843560040135906101ef82612228565b906101fd6040519283611fe5565b8282526020820180933660248260051b60843501011161051f57602460843501915b60248260051b6084350101831061099a57505050600b54956102408761272e565b600b5586600052600c602052604060002094336001600160601b0360a01b87541617865586516001600160401b038111610657576102816001880154611f75565b601f8111610965575b50806020601f82116001146108f7576000916108ec575b508160011b916000199060031b1c19161760018701555b60068601805460ff191690558051906001600160401b0382116106575781906102e46002890154611f75565b601f81116108b7575b50602090601f83116001146108455760009261083a575b50508160011b916000199060031b1c19161760028601555b8051906001600160401b03821161065757819061033c6003880154611f75565b601f8111610805575b50602090601f831160011461079357600092610788575b50508160011b916000199060031b1c19161760038501555b80516001600160401b038111610657578060048601926103948454611f75565b601f8111610756575b50602090601f83116001146106f0576000926106e5575b50508160011b916000199060031b1c19161790555b5190600160401b821161065757600583015482600585015580831061066d575b5060059092016000526020600020916000905b8282106105375785600060206104ba610458896104538461041b612006565b60405193816104338693518092868087019101611ecc565b820161044782518093868085019101611ecc565b01038084520182611fe5565b61273d565b600e54604051634b04236b60e01b81526004810187905260606024820152601060648201526f34b6b0b3b2afb3b2b732b930ba34b7b760811b608482015260a060448201529485936001600160a01b03909216928492839160a4830190611eef565b03925af1801561052b576104fb575b6020826040519080337fd469a7325078a9e6013e0619cb6e9472faf345ebd8469fe6bf9fc7ee67008e03600080a38152f35b602090813d8311610524575b6105118183611fe5565b8101031261051f57816104c9565b600080fd5b503d610507565b6040513d6000823e3d90fd5b80518051906001600160401b038211610657576105548654611f75565b601f811161061a575b50602090601f83116001146105aa57928260019493602093869560009261059f575b5050600019600383901b1c191690841b1787555b019401910190926103fc565b01519050388061057f565b908660005260206000209160005b601f1985168110610602575083602093600196938796938794601f198116106105e9575b505050811b018755610593565b015160001960f88460031b161c191690553880806105dc565b919260206001819286850151815501940192016105b8565b61064790876000526020600020601f850160051c8101916020861061064d575b601f0160051c0190612717565b3861055d565b909150819061063a565b634e487b7160e01b600052604160045260246000fd5b600584016000526020600020908382015b818301811061068e5750506103e9565b8061069b60019254611f75565b806106a8575b500161067e565b601f811183146106be5750600081555b386106a1565b6000908282526106dc601f60208420920160051c8201858301612717565b818355556106b8565b0151905038806103b4565b6000858152602081209350601f198516905b81811061073e5750908460019594939210610725575b505050811b0190556103c9565b015160001960f88460031b161c19169055388080610718565b92936020600181928786015181550195019301610702565b61078290856000526020600020601f850160051c8101916020861061064d57601f0160051c0190612717565b3861039d565b01519050388061035c565b9250600387016000526020600020906000935b601f19841685106107ea576001945083601f198116106107d1575b505050811b016003850155610374565b015160001960f88460031b161c191690553880806107c1565b818101518355602094850194600190930192909101906107a6565b61083490600389016000526020600020601f850160051c8101916020861061064d57601f0160051c0190612717565b38610345565b015190503880610304565b9250600288016000526020600020906000935b601f198416851061089c576001945083601f19811610610883575b505050811b01600286015561031c565b015160001960f88460031b161c19169055388080610873565b81810151835560209485019460019093019290910190610858565b6108e69060028a016000526020600020601f850160051c8101916020861061064d57601f0160051c0190612717565b386102ed565b9050880151386102a1565b91506001880160005260206000206000925b8a601f198416851061094e57506001935082601f19811610610935575b5050811b0160018701556102b8565b8a015160001960f88460031b161c191690553880610926565b810151825560209384019360019092019101610909565b61099490600189016000526020600020601f840160051c8101916020851061064d57601f0160051c0190612717565b3861028a565b6001600160401b0383351161051f576020806024926109c03685883560843501016121a8565b815201930192905061021f565b3461051f5760208060031936011261051f576109e7612907565b6109ef612006565b600435600052600c83526001928360406000200160405192610a1981518092858088019101611ecc565b8301600095825492610a2a84611f75565b93828116908115610ac15750600114610a7d575b610a7987610a5988610453818d03601f198101835282611fe5565b610a62826128fa565b52610a6c816128fa565b50604051918291826121c6565b0390f35b90919293965060005285600020906000915b848310610aae5750505001909201918061045381610a79610a59610a3e565b8054848401890152918701918101610a8f565b60ff191684870152505050811515909102010192508061045381610a79610a59610a3e565b3461051f57604036600319011261051f57610aff611f14565b610b07611f2a565b9060018060a01b03809116600052600560205260406000209116600052602052602060ff604060002054166040519015158152f35b3461051f57604036600319011261051f57610b55611f14565b50610a79610b61612907565b604051610b6d81611fca565b60048152633ab9b2b960e11b6020820152610a62826128fa565b3461051f57602036600319011261051f57600435610ba481612533565b50600052600a602052610a79610bbd60406000206120b2565b6000604051610bcb81611faf565b52604051918291602083526020830190611eef565b3461051f57608036600319011261051f57610bf9611f14565b610c01611f2a565b90604435606435926001600160401b03841161051f573660238501121561051f57610c39610c4a943690602481600401359101612171565b92610c45838383612278565b61256e565b005b3461051f5760208060031936011261051f576001600160401b039060043582811161051f57610c7f9036906004016121a8565b90610c9560018060a01b03600d541633146126d5565b815192831161065757610ca9600f54611f75565b601f8111610d9e575b508092601f8111600114610d2b5780610cf494600091610d20575b508160011b916000199060031b1c191617600f555b60405192828480945193849201611ecc565b81010390207fa21918fe7101aad6a2dac256e7ade3e3130c8e7751eb2e31e58538baaede398a600080a2005b905083015185610ccd565b601f19811693600f60005260008051602061293d8339815191529460005b818110610d875750948291600193610cf49710610d6e575b5050811b01600f55610ce2565b85015160001960f88460031b161c191690558580610d61565b858301518755600190960195918401918401610d49565b610dd490600f60005260008051602061293d833981519152601f860160051c81019184871061064d57601f0160051c0190612717565b83610cb2565b3461051f57600036600319011261051f57600e546040516001600160a01b039091168152602090f35b3461051f57604036600319011261051f57610e1c611f14565b6024359081151580920361051f576001600160a01b0316908115610e8f57336000526005602052604060002082600052602052604060002060ff1981541660ff83161790556040519081527f17307eab39ab6107e8899845ad3d59bd9653f200f220920489ca2b5937696c3160203392a3005b604051630b61174360e31b815260048101839052602490fd5b3461051f57600036600319011261051f5760405160006001805490610ecc82611f75565b80855291818116908115610f605750600114610f07575b610a7984610ef381860382611fe5565b604051918291602083526020830190611eef565b600081815292507fb10e2d527612073b26eecdfd717e6a320cf44b4afac2b0732d9fcbe2b7fa0cf65b828410610f48575050508101602001610ef382610ee3565b80546020858701810191909152909301928101610f30565b60ff191660208087019190915292151560051b85019092019250610ef39150839050610ee3565b3461051f57600036600319011261051f576040516000600f54610fa981611f75565b80845290600190818116908115610f605750600114610fd257610a7984610ef381860382611fe5565b600f6000908152925060008051602061293d8339815191525b828410611003575050508101602001610ef382610ee3565b80546020858701810191909152909301928101610feb565b3461051f57606036600319011261051f576024356001600160401b03811161051f5761104b9036906004016121a8565b6044356001600160401b03811161051f5761106a9036906004016121a8565b50600e546001600160a01b0316330361195f577f104c273dc1e08dfeac102bc694ec5ad878bda7ca1921cf1ea7178806ad0cdc8f604051600435815260406020820152806110bb6040820185611eef565b0390a1600435600052600c602052604060002060ff6006820154166119255760018060a01b03815416916040516110f181611faf565b60008152831561190c576004356000908152600260205260409020546001600160a01b0316806118cc575b84600052600360205260406000206001815401905560043560005260026020526040600020856001600160601b0360a01b82541617905560043585827fddf252ad1be2c89b69c2b068fc378daa952ba7f163c4a11628f55a4df523b3ef600080a48061184157600854600435600052600960205280604060002055600160401b811015610657576111b68160016111d0930160085561269e565b6004359082549060031b91821b91600019901b1916179055565b8481036117db575b6117c257833b61169d575b5090915060405160e081018181106001600160401b038211176106575760405282546001600160a01b0316815261121c600184016120b2565b602082015261122d600284016120b2565b604082015261123e600384016120b2565b606082015261124f600484016120b2565b60808201526005830192835461126481612228565b946112726040519687611fe5565b818652602086019060005260206000206000915b83831061168057505050508360a083015260ff600682015416151560c08301526040516112b281611fca565b60018152605b60f81b6020820152916000925b8551841015611366578361132a575b85518410156113145761130e906113086020808760051b8a0101519260405193816104338693518092868087019101611ecc565b9361272e565b926112c5565b634e487b7160e01b600052603260045260246000fd5b611361602160405183611347829551809260208086019101611ecc565b8101600b60fa1b6020820152036001810184520182611fe5565b6112d4565b906114b16067866114b6946040516113a9602182602061138f8183019687815193849201611ecc565b8101605d60f81b6020820152036001810184520182611fe5565b61149860408701519360806060890151980151604051988996683d913730b6b2911d1160b91b60208901526113e881518092602060298c019101611ecc565b8701701116113232b9b1b934b83a34b7b7111d1160791b6029820152611418825180936020603a85019101611ecc565b017111161132bc3a32b93730b62fbab936111d1160711b603a820152611448825180936020604c85019101611ecc565b016a11161134b6b0b3b2911d1160a91b604c820152611471825180936020605785019101611ecc565b01916e11161130ba3a3934b13aba32b9911d60891b60578401525180936066840190611ecc565b01607d60f81b6066820152036047810184520182611fe5565b612775565b9061150a603d60405180947f646174613a6170706c69636174696f6e2f6a736f6e3b6261736536342c00000060208301526114fa8151809260208686019101611ecc565b810103601d810185520183611fe5565b600435600052600a602052604060002082516001600160401b038111610657576115348254611f75565b601f811161164e575b506020601f82116001146115e857819293946000926115dd575b50508160011b916000199060031b1c19161790555b7ff8e1a15aba9398e019f0b49df1a4fde98ee17ae345cb5f6b5e2c27f5033e8ce760206040516004358152a160068101805460ff1916600117905554600435906001600160a01b031660007fddf252ad1be2c89b69c2b068fc378daa952ba7f163c4a11628f55a4df523b3ef8180a4005b015190508480611557565b601f198216908360005260206000209160005b8181106116365750958360019596971061161d575b505050811b01905561156c565b015160001960f88460031b161c19169055848080611610565b9192602060018192868b0151815501940192016115fb565b61167a90836000526020600020601f840160051c8101916020851061064d57601f0160051c0190612717565b8461153d565b60016020819261168f856120b2565b815201920192019190611286565b604051602081806116d9630a85bd0160e11b95868352336004840152600060248401526004356044840152608060648401526084830190611eef565b03816000895af16000918161177d575b5061174957843d15611741573d9061170082612156565b9161170e6040519384611fe5565b82523d6000602084013e5b8151918261173a57604051633250574960e11b815260048101839052602490fd5b9050602001fd5b606090611719565b929391926001600160e01b0319160361176557508190836111e3565b60249060405190633250574960e11b82526004820152fd5b9091506020813d6020116117ba575b8161179960209383611fe5565b8101031261051f57516001600160e01b03198116810361051f5790866116e9565b3d915061178c565b6040516339e3563760e11b815260006004820152602490fd5b6117e48561223f565b8060001981011161182b57856000526006602052604060002060001982016000526020526004356040600020556004356000526007602052600019016040600020556111d8565b634e487b7160e01b600052601160045260246000fd5b8085146111d0576118518161223f565b6004356000526007602052604060002054818103611899575b5060043560005260006040812055816000526006602052604060002090600052602052600060408120556111d0565b6000838152600660209081526040808320858452825280832054848452818420819055835260079091529020558661186a565b6118f1600435600052600460205260406000206001600160601b0360a01b8154169055565b8060005260036020526040600020600019815401905561111c565b604051633250574960e11b815260006004820152602490fd5b60405162461bcd60e51b815260206004820152601260248201527113919508185b1c9958591e481b5a5b9d195960721b6044820152606490fd5b60405162461bcd60e51b815260206004820152601460248201527343616c6c6572206973206e6f74206f7261636c6560601b6044820152606490fd5b3461051f57602036600319011261051f5760206119be6119b9611f14565b61223f565b604051908152f35b3461051f57602036600319011261051f5760206119e4600435612533565b6040516001600160a01b039091168152f35b3461051f57602036600319011261051f57600435600854811015611a2d57611a1f60209161269e565b90546040519160031b1c8152f35b6044906040519063295f44f760e21b8252600060048301526024820152fd5b3461051f57602036600319011261051f576004356000908152600c6020526040902080546001600160a01b0316611a85600183016120b2565b91611b03611a95600283016120b2565b91611af5611aa5600383016120b2565b611ae760ff6006611ab8600487016120b2565b9501541695611ad9604051998a998a5260c060208b015260c08a0190611eef565b9088820360408a0152611eef565b908682036060880152611eef565b908482036080860152611eef565b90151560a08301520390f35b3461051f57602036600319011261051f57611b28611f14565b600d546001600160a01b039190611b4290831633146126d5565b16806001600160601b0360a01b600e541617600e557f107a9fafffb7ac890f780879e423760c9ffea8dcee8045681f40f542aede2cb8600080a2005b3461051f57610c4a611b8f36611f40565b9060405192611b9d84611faf565b60008452610c45838383612278565b3461051f57604036600319011261051f57611bc5611f14565b60243590611bd28161223f565b821015611c055760018060a01b031660005260066020526040600020906000526020526020604060002054604051908152f35b60405163295f44f760e21b81526001600160a01b039190911660048201526024810191909152604490fd5b3461051f57610c4a611c4136611f40565b91612278565b3461051f57600036600319011261051f576020600854604051908152f35b3461051f57604036600319011261051f57611c7e611f14565b602435611c8a81612533565b33151580611d39575b80611d0c575b611cf4576001600160a01b039283169282918491167f8c5be1e5ebec7d5bd14f71427d1e84f3dd0314c0f7b2291e5b200ac8c7c3b925600080a4600090815260046020526040902080546001600160a01b0319169091179055005b60405163a9fbf51f60e01b8152336004820152602490fd5b5060018060a01b038116600052600560205260406000203360005260205260ff6040600020541615611c99565b506001600160a01b038116331415611c93565b3461051f57602036600319011261051f57600435611d6981612533565b506000526004602052602060018060a01b0360406000205416604051908152f35b3461051f57600036600319011261051f5760405160008054611dab81611f75565b80845290600190818116908115610f605750600114611dd457610a7984610ef381860382611fe5565b600080805292507f290decd9548b62a8d60345a988386fc84ba6bc95484008f6362f93160ef3e5635b828410611e15575050508101602001610ef382610ee3565b80546020858701810191909152909301928101611dfd565b3461051f57602036600319011261051f576004359063ffffffff60e01b821680920361051f57602091632483248360e11b8114908115611e6f575b5015158152f35b63780e9d6360e01b811491508115611e89575b5083611e68565b6380ac58cd60e01b811491508115611ebb575b8115611eaa575b5083611e82565b6301ffc9a760e01b14905083611ea3565b635b5e139f60e01b81149150611e9c565b60005b838110611edf5750506000910152565b8181015183820152602001611ecf565b90602091611f0881518092818552858086019101611ecc565b601f01601f1916010190565b600435906001600160a01b038216820361051f57565b602435906001600160a01b038216820361051f57565b606090600319011261051f576001600160a01b0390600435828116810361051f5791602435908116810361051f579060443590565b90600182811c92168015611fa5575b6020831014611f8f57565b634e487b7160e01b600052602260045260246000fd5b91607f1691611f84565b602081019081106001600160401b0382111761065757604052565b604081019081106001600160401b0382111761065757604052565b90601f801991011681019081106001600160401b0382111761065757604052565b60405190600082600f549161201a83611f75565b808352926001908181169081156120905750600114612043575b5061204192500383611fe5565b565b600f6000908152915060008051602061293d8339815191525b8483106120755750612041935050810160200138612034565b81935090816020925483858a0101520191019091859261205c565b90506020925061204194915060ff191682840152151560051b82010138612034565b90604051918260008254926120c684611f75565b90818452600194858116908160001461213357506001146120f0575b505061204192500383611fe5565b9093915060005260209081600020936000915b81831061211b575050612041935082010138806120e2565b85548884018501529485019487945091830191612103565b91505061204194506020925060ff191682840152151560051b82010138806120e2565b6001600160401b03811161065757601f01601f191660200190565b92919261217d82612156565b9161218b6040519384611fe5565b82948184528183011161051f578281602093846000960137010152565b9080601f8301121561051f578160206121c393359101612171565b90565b602080820190808352835180925260408301928160408460051b8301019501936000915b8483106121fa5750505050505090565b9091929394958480612218600193603f198682030187528a51611eef565b98019301930191949392906121ea565b6001600160401b0381116106575760051b60200190565b6001600160a01b0316801561225f57600052600360205260406000205490565b6040516322718ad960e21b815260006004820152602490fd5b6001600160a01b038281169391841561190c576000948386526020956002875260409684888320541696331515806124a5575b5087158015612472575b84845260038352898420805460010190558784526002835289842080546001600160a01b0319168617905587858a7fddf252ad1be2c89b69c2b068fc378daa952ba7f163c4a11628f55a4df523b3ef8780a4156123f65760085487845260098352808a852055600160401b8110156123e2578761233b826001612354940160085561269e565b90919082549060031b91821b91600019901b1916179055565b838803612390575b50505050169283830361236f5750505050565b6064945051926364283d7b60e01b8452600484015260248301526044820152fd5b6123999061223f565b6000198101939084116123ce5782916007918a945260068152838320858452815287848420558783525220553880808061235c565b634e487b7160e01b83526011600452602483fd5b634e487b7160e01b84526041600452602484fd5b878414612354576124068861223f565b878452600783528984205481810361243b575b50878452838a8120558884526006835289842090845282528289812055612354565b898552600684528a852082865284528a8520548a8652600685528b86208287528552808c8720558552600784528a85205538612419565b600088815260046020526040902080546001600160a01b03191690558884526003835289842080546000190190556122b5565b806124f2575b156124b657386122ab565b8887896124d3576024915190637e27328960e01b82526004820152fd5b905163177e802f60e01b81523360048201526024810191909152604490fd5b503388148015612517575b806124ab57508683526004825233868a85205416146124ab565b5087835260058252888320338452825260ff89842054166124fd565b6000818152600260205260409020546001600160a01b0316908115612556575090565b60249060405190637e27328960e01b82526004820152fd5b813b61257b575b50505050565b604051630a85bd0160e11b8082523360048301526001600160a01b039283166024830152604482019490945260806064820152602095929091169390929083906125c9906084830190611eef565b039285816000958187895af184918161265a575b5061263d575050503d600014612635573d6125f781612156565b906126056040519283611fe5565b81528091843d92013e5b8051928361263057604051633250574960e11b815260048101849052602490fd5b019050fd5b50606061260f565b919450915063ffffffff60e01b1603611765575038808080612575565b9091508681813d8311612697575b6126728183611fe5565b8101031261269357516001600160e01b0319811681036126935790386125dd565b8480fd5b503d612668565b6008548110156113145760086000527ff3f7a9fe364faab93b216da50a3214154f22a0a2b415b23a84c8169e8b636ee30190600090565b156126dc57565b60405162461bcd60e51b815260206004820152601360248201527221b0b63632b91034b9903737ba1037bbb732b960691b6044820152606490fd5b818110612722575050565b60008155600101612717565b600019811461182b5760010190565b9061204160216040518461275b829651809260208086019101611ecc565b8101601160f91b6020820152036001810185520183611fe5565b8051156128e65760405190606082018281106001600160401b0382111761065757604052604082527f4142434445464748494a4b4c4d4e4f505152535455565758595a61626364656660208301527f6768696a6b6c6d6e6f707172737475767778797a303132333435363738392b2f6040830152805160029182820180921161182b5760039182900480841b94906001600160fe1b0381160361182b579261283561281f86612156565b9561282d6040519788611fe5565b808752612156565b6020860190601f190136823793829183518401906020820192835194600085525b83811061289557505050505251068060011461288257600214612877575090565b603d90600019015390565b50603d9081600019820153600119015390565b87600491999293949901918251600190603f9082828260121c16880101518453828282600c1c16880101518385015382828260061c1688010151888501531685010151898201530197929190612856565b506040516128f381611faf565b6000815290565b8051156113145760200190565b60405161291381611fca565b600181528060005b6020808210156129365790606060209282850101520161291b565b5050509056fe8d1108e10bcb7c27dddfc02ed9d693a074039d026cf4ea4240b40f7d581ac802a2646970667358221220079eed27d9093ec71b38545a422060d89b4b0af8b576f106a2d6366f18165b4464736f6c63430008140033",
  "linkReferences": {},
  "deployedLinkReferences": {}
}